:020000040800F2
:10000000A0B801201503000825290008C125000813
:1000100021290008411F00080F43000800000000CC
:10002000000000000000000000000000553900083A
:10003000451F0008000000006D330008313B000838
:100040002F0300082F0300082F0300082F030008C8
:100050002F0300082F030008491F00082F03000882
:100060002F0300087D1F0008991F00082F030008B8
:100070002F0300082F0300082F0300082F03000898
:100080002F0300082F0300082F0300082F03000888
:100090002F0300082F0300082F030008FD1F00088E
:1000A0002F0300082F0300082F0300082F03000868
:1000B0002F0300089D3B0008B93B00082F030008F0
:1000C0002F0300082F0300082F0300082F03000848
:1000D0002F030008013F0008893F0008F93F00088E
:1000E0002F0300082F0300082F0300082F03000828
:1000F0002F0300082F0300082F0300082F03000818
:100100002F0300082F030008F13B00082F0300080D
:100110002F0300082F0300082F0300080D3D0008DF
:100120002F0300082F0300082F0300082F030008E7
:100130002F0300082F0300082F0300082F030008D7
:100140002F0300082F0300082F0300082F030008C7
:100150002F0300082F0300082F0300082F030008B7
:100160002F0300082F0300082F0300082F030008A7
:100170002F0300082F0300082F0300082F03000897
:100180002F0300082F03000800F002F800F0B2F877
:100190000AA090E8000C82448344AAF10107DA45E2
:1001A00001D100F0A7F8AFF2090EBAE80F0013F082
:1001B000010F18BFFB1A43F001031847FC69000048
:1001C0001C6A00000A444FF0000C10F8013B13F0C9
:1001D000070408BF10F8014B1D1108BF10F8015BA0
:1001E000641E05D010F8016B641E01F8016BF9D193
:1001F00013F0080F1EBF10F8014BAD1C0C1B09D1EA
:100200006D1E58BF01F801CBFAD505E014F8016B5B
:1002100001F8016B6D1EF9D59142D6D370470000ED
:100220000023002400250026103A28BF78C1FBD8FF
:10023000520728BF30C148BF0B6070476E2900F0DD
:10024000F982702900F08781662905F05A866529B0
:1002500005F05786672905F05486612905F0538615
:1002600003681B0A28BF41F08001692900F0F8806B
:10027000642900F0F580752900F0F2806F2900F004
:10028000F183782900F05381E92900F08B83E42978
:1002900000F08883F52900F08583EF2900F0EE83D4
:1002A000F82900F052810368DB0928BF41F0800182
:1002B000632900F0FA82732900F0FF82E32900F03D
:1002C000C187F32900F0C687002070471FB505F0ED
:1002D00013FE01F015F804000020002105F0F6FDE2
:1002E000401C60600020002105F0DAFDE0601FBDC9
:1002F00010B510BD00F0D6FF1146FFF7E7FF04F080
:10030000A1F901F0AFF803B4FFF7F2FF03BC04F06A
:1003100080F800000948804709480047FEE7FEE7EB
:10032000FEE7FEE7FEE7FEE7FEE7FEE7FEE7FEE7A5
:1003300004480549054A064B70470000353B000854
:1003400089010008A0B20120A0B80120A0B40120BA
:10035000A0B40120704700001CB50C46064B7B443E
:1003600069460090204600F07EFA04460020694667
:1003700000F08CFA20461CBD2B0500000FB4044988
:1003800010B503AA029800F09DFA10BC5DF814FBAA
:100390001C0000200FB41CB5084B06AA7B4469461C
:1003A0000090059800F05FFA04460020694600F0CE
:1003B0006DFA20461CBC5DF814FB0000ED04000043
:1003C00070B5044685690068C10601D5302600E095
:1003D0002026C00707D070BDD4E9012130469047E0
:1003E000206A401C20626D1EF6D570BD70B50446B3
:1003F00085690078C00707D170BDD4E901212020AC
:100400009047206A401C20626D1EF6D570BD70B505
:100410000C460546012A05D02878800600D5EA69F1
:10042000002302E0012305E05B1C934202D2E05C62
:100430000028F9D1A869E618C01AA861286A1844EA
:1004400028622846FFF7BCFF04E0D5E9012114F833
:10045000010B9047B442F8D32846FFF7C7FF70BDA1
:100460002DE9F0410646002410687529314616A58D
:1004700010D000F074F9002802DA404213A507E01A
:1004800031688A0701D512A502E0490704D511A5F4
:10049000012401E000F06CF900210A2206F1240792
:1004A00009E0B0FBF2FCB0FBF2F302FB1C003030C1
:1004B00078541846491C0028F3D123462A46304672
:1004C000BDE8F04100F05DB9000000002D00000023
:1004D0002B00000020000000F0B40D460188090543
:1004E00002D5214C7C4402E01F4C7C440E34002198
:1004F00000F1240608E002F00F071209E75D42EA66
:1005000003721B097754491C52EA0307F3D102789E
:100510000023120704D5702D06D009B1022311342F
:100520002246F0BC00F02DB901231034F8E770B575
:1005300004460D462146106800F01AF90246294685
:100540002046BDE870400023C6E7D21D22F0070315
:10055000D3E90023C0E70368126843F02003036077
:100560000823C3610023B7E7B06300002DE9F05F03
:10057000894604464FF0000ADFF874B1FB44C0F826
:1005800020A02046E1688847002874D0252806D09E
:10059000D4E901219047206A401C2062F1E700263F
:1005A0005F462046E16888472028054607DB312D55
:1005B00005D2781910F8200C08B10643F1E7B0070E
:1005C00001D526F00406C4F81CA00027C4F818A022
:1005D0002A2D09D0284603F015FF38B304EB87080D
:1005E000303DC8F8185019E059F8041B204604EBB8
:1005F00087029161E1688847012F054618D1E069BB
:10060000002820DA26F020061DE0D8F8180000EBBC
:10061000800005EB40003038C8F818002046E1683B
:100620008847054603F0EEFE0028EED1012F0AD0E0
:100630002E2D08D12046E16888477F1C0546022FF1
:1006400046F02006C4DBA069002803DA404246F0E9
:100650000106A061F00701D026F010066C2D0BD02A
:10066000682D09D04C2D39D06A2D35D0742D35D058
:100670007A2D33D016E038E0E1682F4620468847CF
:10068000B842054609D16C2F26D04FF48060E1684E
:10069000064320468847054604E06C2F1AD04FF4E5
:1006A000807006430DB3A5F14100192802D820350A
:1006B00046F400664A462946204626604E46FFF725
:1006C000BDFD80B101280BD0F61D26F0070000F11A
:1006D000080956E74020E4E78020D8E70020D6E765
:1006E00006F104094DE7284652E7206ABDE8F09F6D
:1006F0004063000030B505460B462A4613F8014B0F
:1007000012F8010B08B1A042F8D01CB1002802D0A9
:100710006D1CF1E7284630BD10B5431C02E010F80F
:10072000011B71B18107FAD14FF0013202C88C1A56
:100730008C4314EAC211F9D0C01A0A0603D0C01EB5
:1007400010BDC01A10BD0A0401D0801E10BD0902E0
:10075000FCD0401E10BD7047704770477047096855
:100760004A0501D540B27047C905FCD500B27047B3
:1007700009684A0501D5C0B27047C905FCD580B2E9
:1007800070472DE9F0470D4699469246044600F120
:1007900024080168880604D5E06921F01001216071
:1007A00000E00120A84201DD471B00E00027A1690D
:1007B0007A1902EB0900081AA0612078C00602D459
:1007C0002046FFF7FDFD002608E0D4E901211AF8D4
:1007D00006009047206A401C761C20624E45F4DBE0
:1007E0002078C0060AD52046FFF7EAFD06E0D4E9E6
:1007F000012130209047206A401C2062381EA7F15A
:100800000107F4DC07E0D4E9012118F8050090475E
:10081000206A401C2062281EA5F10105F3DC204659
:10082000FFF7E4FD2078000602D50220BDE8F0873E
:100830000120FBE711680268006A530501D50870C2
:100840000AE0D30501D5088006E0130603D5C217D8
:10085000C1E9000200E008600120704701694A1CFC
:1008600002610878704700B58FB0CDE901310021F1
:10087000059105497944CDE9031011466846FFF713
:1008800075FE0FB000BD0000E5FFFFFF0A6802F82B
:10089000010B0A60704710B5436913B1AFF30080D4
:1008A00001E0FFF7B4FD012010BD127800F1240132
:1008B0000A7000224A700122EDE711684FF0FF3202
:1008C000E9E70000074B70B50D467B44FFF7CBFF0F
:1008D0000446284600F0C2FC10B14FF0FF3070BD56
:1008E000204670BD5B3D00002DE9FF5F15468A463E
:1008F0000446DFF8AC80F8440027D8E900103E46F3
:10090000CDE9001010E03AF816106A4602A800F08F
:10091000A9FC411C07D02178890603D5E269391862
:1009200091420DD80744761C2078800602D5E069F4
:10093000B84205DDAE42E6DB3AF816000028E2D107
:10094000A069C01BA0612046FFF73AFDD8E900105E
:10095000CDE90010002017E03AF818106A4602A806
:1009600000F080FCB0F1FF3F81460BD000250DF177
:10097000080B05E0D4E901211BF8050090476D1C28
:100980004D45F7D308F10100B0428046E4DB206A10
:10099000384420622046FFF729FDBDE8FF9F000094
:1009A000DA5F00002DE9F0418046D21D22F00702F7
:1009B0000025D2E90002F52915A614D0011E72F116
:1009C000000106DA0023D0EB030063EB020211A65C
:1009D00008E0D8F800108B0701D50FA602E0490700
:1009E00001D50EA601251146002408F1240704E0D4
:1009F00000F04EF830323A55641C50EA0102F7D14B
:100A00002B46324621464046BDE8F041FFF7B9BECD
:100A1000000000002D0000002B000000200000005E
:100A200030B4002100F1240408E002F00705D208E8
:100A3000303542EA4372DB086554491C52EA03052B
:100A4000F3D10468002310A2250708D504F0200480
:100A50000C4304D0C46901230CA2641EC46130BCE1
:100A6000FFF78FBE10B5044621461068FFF780FEE1
:100A700002462046BDE810400023D1E7D21D22F0F7
:100A80000701D1E90023CBE700000000300000009F
:100A900030B5B0F10A024FEA900E71F100034EEA50
:100AA000817EB0EB0E0061EB91014FEA101E4EEA21
:100AB000017E10EB0E0041EB11114FEA102E4EEAB1
:100AC000016E10EB0E0041EB11214FEA104E4EEA81
:100AD000014E10EB0E0041EB1141401841F10001B5
:100AE0004FEAD00040EA41704FEAD10110EB800597
:100AF0004FEA810444EA907444EB01046D1944EB1D
:100B00000404521BA3414FF0000348BF0A3200D532
:100B100030BD401C41F1000130BD70472DE9FF4F51
:100B20000C461E464FF0FF378BB0D2E90001DDF8CE
:100B300060800A908A46C1F30A5505B93D460021F6
:100B400008464FF00000BAF1000F00F4400005DA4B
:100B500000EB80004FF4400101EA50004FEA905949
:100B6000B9F1010F00DDB9460A9850EA4A000ED0EB
:100B700044F61050A5F2FF3545432F14B8F1000F8D
:100B80001ED07542291E1EDDC9F100021CE0B8F11D
:100B9000010F4FF0000001D0302103E0F24305E0E7
:100BA0002154401CB042FBDB30460022002121547E
:100BB0000B99C1F80880C1E900200FB0BDE8F08FA3
:100BC000BD1B6D1CDEE74A4600DA694206A800F04C
:100BD000DBFB06AB93E8070003AB83E80700504656
:100BE0000A9900F089FC8DE80700A0F500501F3835
:100BF00000900398002D09DD42F21F014A46084487
:100C000003A90390684600F0E8FE08E0A0F5005054
:100C10004A461F3803A90390684600F0F2FE8DE8AB
:100C200007000004000C03D04FF0FF30410800E043
:100C30001046B8F1000F03D00022009215461EE0C6
:100C4000751E05D4FFF724FF303262556D1EF9D5AD
:100C5000B3460122084302D000227F1C04E0207822
:100C6000302801D100227F1E002A099786D01DE07E
:100C7000112D07DAFFF70CFF303262556D1C50EA78
:100C80000102F5D1084302D00098C8B10EE000215E
:100C9000681E05E0235C625C63542254401E491CBC
:100CA0008142F7DBAB46A81B401E0990002004F8E8
:100CB0000B000B98099AC0F80880C0E9002B7CE76C
:100CC00011264FF0000859E72DE9F04F88460446F9
:100CD000D21D22F0070191B0D1E90001CDE90A014E
:100CE00003F078FB02460B98C00F01D02D2007E0DF
:100CF0002068810701D52B2002E0202101EAC000F5
:100D0000032A099001D0072A05DB03464146204605
:100D100000F0FAFA0BE12078800601D5E06900E0E6
:100D20000620B8F1650F814606D0B8F1660F18D0DD
:100D3000B8F1670F70D131E00020B9F1110F0090C8
:100D400001DB112301E009F101030AAA01A90CA8A2
:100D5000FFF7E4FEDDE90C70002609F1010583468A
:100D600047E001204B4600904FF000470AAA01A936
:100D70000CA8FFF7D3FEDDE90DB00C995D46002607
:100D800010B909F101000D18B9EB050003D4C0F149
:100D9000FF3609F10105A5EB09002BE0B9F1010FC0
:100DA00001DA4FF001090020B9F1110F0090484617
:100DB00001DD112300E003460AAA01A90CA8FFF7F0
:100DC000ADFEDDE90C704D46002683462078000715
:100DD0000AD4AB4500DA5D4601A8012D04DD4119B6
:100DE00011F8011C302907D04F4502DA17F1040F22
:100DF00004DA012082460FE06D1EEEE7002F02DCD0
:100E0000ED1B3E4403E0781CA84200DD7D1CB81BAE
:100E100000F1010A4FF000472078000703D4AA45EB
:100E200001DB4FF0FF3A0021B7F1004F0DF143080D
:100E30008DF8431024D002202B23002F01DA7F42AB
:100E40002D230A21021EA0F1010000DC5FB197FBF7
:100E5000F1FC97FBF1F201FB1C7C17460CF1300C06
:100E600008F801CDEEE7A8F101000370218809051B
:100E700001D5452100E06521A0F1010800F8011C21
:100E800009980FA9A1EB0807FF1D00B10120411926
:100E900001EBEA70A1693844081A401EA06120786D
:100EA000C00602D42046FFF78BFA099828B1D4E98E
:100EB00001219047206A401C20622078C00622D57C
:100EC0002046FFF77DFA1EE0002E04DBB34502DD6D
:100ED00001A8805D00E03020D4E901219047206A1C
:100EE000401C2062761CAAF101005FEA000A0AD1C8
:100EF00000F006FAC0680168405CD4E9012190471F
:100F0000206A401C2062281EA5F10105DCDC07E0F8
:100F1000D4E9012118F8010B9047206A401C206297
:100F2000381EA7F10107F3DC2046FFF75FFA032024
:100F300011B043E62DE9F04F04460D46D21D22F0D4
:100F4000070089B0D0E9009248461746394603F0B9
:100F500041FA0246F80F01D02D2307E020688107EF
:100F600001D52B2302E0202101EAC0038DF82030B7
:100F70000BB1012000E00020032A824601D0072A9D
:100F800004DB2946204600F0BFF93DE120788006C9
:100F900001D40D2500E0E569C7F30A560D2D49DAA5
:100FA00000214FEA175B08464FF00000002F00F4C5
:100FB000400007DA00EB80004FF4400100EBD070F6
:100FC00001EA60008115012901DD4FF0FF310022A7
:100FD0004FEA850CBCF1180F06D31346ACF118008C
:100FE0004FF08052C24003E04FF4801323FA0CF319
:100FF0000CF10C0CBCF1200F04D3ACF1200C09FA5D
:101000000CF001E007FA0CF000294FF0004801DD78
:1010100018B90FE00ED140450CD319EB02095F411E
:1010200021B9404502D19F4329EA0209BBEB175F72
:1010300000D0761C2088000502D57B48784402E069
:1010400079487844193808AA302302F80A30037C1A
:101050000AF10101002E0AF1020A53546A4602DC29
:101060004FF0300101E04FF031014FF001088DF8F1
:10107000001002D0A6F2FF3603E059EA470100D083
:101080006A4E002D02DC2178090704D54FF00208D2
:101090002E218DF80110C44600210BE0C7F3034355
:1010A0003F01C35C491C6D1E02F80830052908F198
:1010B000010801DA002DF1DC00210CE000EB1973CE
:1010C000491C1B786D1E082902F808304FEA0919DF
:1010D00008F1010801DA002DF0DC2178890602D53B
:1010E00014E0A8F10108E04505DD02EB080111F864
:1010F000011C3029F5D0B8F1000F07DD02EB080123
:1011000011F8011C2E2901D1A8F10108002D05DDDF
:101110003E2102F808106D1E08F10108407C002EE7
:1011200002F8080008F1010804DA2D20764202F8DE
:10113000080002E02B2002F808000A214FF47A7020
:10114000864208F101080BDB96FBF0F3303302F81E
:10115000083096FBF0F308F1010800FB136601E08C
:10116000642E0CDB642096FBF0F3303302F8083079
:1011700096FBF0F308F1010800FB136601E00A2E6C
:1011800006DB96FBF1F0303002F8080008F10108A8
:1011900096FBF1F001FB1060303002F80800A16905
:1011A00008F1010808EB050202EB0A00081AA06129
:1011B0002078C00602D42046FFF702F9216A08AE63
:1011C00001EB0A00206204E0D4E9012116F8010BCA
:1011D0009047BAF1010AF7D22078C00602D520461E
:1011E000FFF7EEF86E4609E016F8010B3E280FD027
:1011F000D4E901219047206A401C2062B8F101081F
:10120000F2D22046FFF7F2F809B00320BDE8F08FD4
:10121000206A2844206203E0D4E90121302090476D
:101220006D1EEBD3F8E70000AF58000002FCFFFF93
:1012300010B5436913B1AFF3008001E0FFF754FB31
:10124000012010BD128800F1240182840022C28492
:101250000122EDE711684FF0FF32E9E7007B00F073
:101260008000704770B516460C46054600F040F801
:10127000036893F80101012806D0FF2C0FD8185DF0
:1012800068B101202C7070BDD3F8070132462146A9
:1012900003F2071303442846BDE8704018474FF097
:1012A000FF3070BD754600F0E3F8AE4605006946B4
:1012B000534620F00700854618B020B5FFF738F8F0
:1012C000BDE820404FF000064FF000074FF0000847
:1012D0004FF0000B21F00701AC46ACE8C009ACE8C8
:1012E000C009ACE8C009ACE8C0098D4670470000F1
:1012F00010B500F005F8001D10BD00BFD14B000077
:101300000048704760B201202DE9F0411F460446B5
:1013100003260168072A01F4006004DB08B116A562
:1013200005E016A503E008B115A500E015A521F01C
:1013300010002060A069C01EA0610FB1401EA06116
:101340002046FFF73DF84FB1D4E9012138469047D8
:10135000206A401C2062C01C206206E0206AFAE776
:10136000D4E9012115F8010B9047761EF8D22046EA
:10137000FFF73CF8BDE8F0814E414E006E616E0013
:10138000494E4600696E66002DE9F04781461646D3
:101390008AB0334878440DC88DE80D003048784451
:1013A000801C03AC0DC884E80D0041F69B30084456
:1013B000372190FBF1F290FBF1F5A5F1800501FBDF
:1013C00012041B3C02D56442012000E00020DFF83B
:1013D00090A080460027FA44AAF1BE0A0DE0E0077B
:1013E00009D03246684607EB47010AEB810100F05D
:1013F00008FB8DE8070064107F1C002CEFD1184F0C
:101400007F44AC3F18E0E80714D007EB04100DF15F
:10141000180A90E80E008AE80E00C068F04201D178
:1014200098190890324606A903A800F0EAFA03AB1F
:1014300083E807006D10641C002DE4D13246694634
:10144000B8F1000F03A802D000F0C7FA01E000F0E5
:10145000D8FAC9E90001C9F808200AB0BDE8F08748
:10146000E85500000446AFF300802046FEF74BFF2E
:101470000048704740B201204FF0013C50F8042B67
:1014800051F8043B9A4221D1A2EB0C03934313EA97
:10149000CC1317D150F8042B51F8043B9A4215D1C4
:1014A000A2EB0C03934313EACC130BD150F8042B9B
:1014B00051F8043B9A4209D1A2EB0C03934313EA7F
:1014C000CC13DBD04FF00000704700BFD01A01BA38
:1014D000B1FA81F101F0180122FA01F0CB40C1F11B
:1014E0002001DBB2C0B2C01A2CFA01F3D11A914329
:1014F00011EAC311E6D170475FEA400C08BF91F0D2
:10150000000F4FEA8C234FEAC12243EA51514FEAC0
:101510001C5018BF00F5F0404FEA300018BF41F0F2
:1015200000415FEA6C5C00F02980BCF1FF3F08BF1E
:1015300040F080407047130C06BF12044FF0100CAF
:101540004FF0000C130E04BF12020CF1080C130F25
:1015500004BF12010CF1040C930F04BF92000CF1B4
:10156000020CD30F04BF52000CF1010C11464FF0D6
:101570000002A0F11F00A0EB0C00704711F0004F1B
:1015800008BF704731F000413FF4D5AF0B0C06BFE8
:1015900009044FF0100C4FF0000C0B0E04BF0902B1
:1015A0000CF1080C0B0F04BF09010CF1040C8B0F9C
:1015B00004BF89000CF1020CCB0F04BF49000CF1F1
:1015C000010CCCF12003A0EB0C0022FA03F302FA89
:1015D0000CF241EA030100F10100704720F07F4C5A
:1015E00080EA030023F07F47ACEB070303F57C534D
:1015F00000F0004003F1FF032DE980494FEA154B4D
:1016000009B44FEA144325EA0B4E24EA03480FF2CB
:10161000042606EB132749083E785FEA320203FBF3
:101620000667C7F5000707FB06F64FEA54374FEA8F
:10163000D64606F1020607FB066CCCF1005C4FEAC9
:101640001C472CEA074C07FB06F40CFB06F504EBE1
:1016500015464FEA961634BF00204FF000404FEA7F
:10166000D13706FB07FC4FEA1C4C0CFB0BF7D21BD7
:1016700003FB0CF761EB07010CFB0EF7B0EB074027
:1016800072EB17420CFB08F734BFA2EB0742B2EB38
:10169000074261EB17414FEA0C444FEA910706FB02
:1016A00007FC4FEA1C4C0CFB0BF7B0EBC74072EB8E
:1016B000573203FB0CF734BFA2EBC742B2EBC74271
:1016C00061EB57310CFB0EF7B0EBC70072EB5772B2
:1016D0000CFB08F734BFA2EBC702B2EBC70261EB09
:1016E0005771039F4FEA816141EA921104EBCC04E8
:1016F0004FEAD1374FEA826206FB07FC42EA9012BA
:101700004FEA80604FEA1C4C0CFB0BF7D21B03FB2B
:101710000CF761EB07010CFB0EF7B0EB074072EB27
:1017200017420CFB08F734BFA2EB0742B2EB0742AB
:1017300061EB17414FEA8C554FEA910704EB9C246B
:1017400006FB07FC4FEA1C4C0CFB0BF7B0EBC74049
:1017500072EB573203FB0CF734BFA2EBC742B2EB7C
:10176000C74261EB57310CFB0EF7B0EBC70072EBD1
:1017700057720CFB08F734BFA2EBC702B2EBC702EB
:1017800061EB577115EB4C254FEA816141EA9211EB
:101790004FEA82624FEAD13742EA901206FB07FC19
:1017A00044F100044FEA80604FEA1C4C0CFB0BF73D
:1017B000D21B03FB0CF761EB07010CFB0EF7B0EB40
:1017C000074072EB17420CFB08F734BFA2EB07424D
:1017D000B2EB074261EB174115EB1C154FEA813163
:1017E00041EA92414FEA823242EA90424FEA803027
:1017F0004FEA0C7644F1000448EA03434EEA0B48F2
:101800004FF0000EB2EB080C71EB030724BF6246E9
:1018100039464EEB0E0E4FF0000B00185241494175
:101820004BEB0B0BB2EB080C71EB03077BF1000BDE
:1018300024BF624639464EEB0E0E4FF0000B0018E7
:10184000524149414BEB0B0BB2EB080C71EB030718
:101850007BF1000B24BF624639464EEB0E0E51EA77
:10186000020718BF46F0010616EB0E7655F100028E
:1018700054F1000103D5BDE88901BDE80088BDE849
:101880008901BDE80048B619524141EB0101A3F1BD
:101890000103704780807F7E7D7C7B7A79787776C4
:1018A00076757473727171706F6E6E6D6C6C6B6A3D
:1018B0006A696868676666656464636362616160DB
:1018C000605F5F5E5E5D5D5C5C5B5B5A5A59595858
:1018D00058575756565555555454535352525251C2
:1018E000515050504F4F4F4E4E4D4D4D4C4C4C4B18
:1018F0004B4B4A4A4A49494948484847474747465F
:10190000464645454544444444434343434242429A
:1019100042414141002B26D4770021D01CB54FEA2B
:10192000370703B44FF010004FF010014FF00000E4
:101930000FBCBDE810400BF1010BBBF1010F08BF5C
:101940005FEA170722BF12F1010211F101014FF006
:10195000004143F1000300F0004043EA00007047FB
:10196000F9D35708DAE746EA064613F1400F4FEA83
:1019700016461FDD13F1200FDFBF16430A46002174
:1019800020335B42C8D0C3F1200746EA064602FA7C
:1019900007F74FEA164646EA0706C3F1200722FA80
:1019A00003F201FA07F721FA03F14FF0000342EACC
:1019B0000702B1E746EA020646EA06464FEA16463D
:1019C00046EA0106BCBF46EA0646360C4FF0000365
:1019D0004FF000024FF000019EE72DE9C04893460A
:1019E00030B491E8380007C831EA400C48BF34EA07
:1019F000430C03D5FFF7F2FDFFF78CFFF0BCBDE809
:101A000000882DE9C048934630B491E8380007C8F3
:101A100010F0804F08BF13F0804F03D100F005F89D
:101A2000FFF778FFF0BCBDE8008820F07F4780EA30
:101A3000030023F07F4C07EB0C03A3F57C5300F06D
:101A40000040A3F1FE0392F0000F00F0B38095F088
:101A5000000F00F077802DE901494FEA11404FEA6D
:101A6000144621EA004800FB06FC24EA064708FB6E
:101A700006F607FB08F800FB07F718EB06484CEBE7
:101A8000164C4FEA124B18EB07484FEA15464CEB41
:101A9000174022EA0B4E0BFB06FC25EA06470EFB1D
:101AA00006F607FB0EFE0BFB07F71EEB064E4CEB94
:101AB000164C4FF000061EEB074E4CEB174B18EB85
:101AC0000B0840F1000018EB0E0B58EB000840F13A
:101AD00000008F1A4FF000013CBFC943661B14BFC2
:101AE000B5EB040C00213CBFC943F61B4FEA174479
:101AF0004EEA8E0E27EA04454FEA1C4704FB0762B4
:101B00002CEA074C05FB07F70CFB05F604FB0CFC65
:101B100016EB074642EB174216EB0C4642EB1C4213
:101B20001BEB060658EB0202414146EA9E0601D530
:101B3000BDE80189B619524141EB0101A3F101034E
:101B4000BDE801894FEA14454FEA114724EA0546EA
:101B500021EA074C05FB07F406FB07F70CFB06F12F
:101B600005FB0CFC11EB074144EB17444FEA12470D
:101B700011EB0C4144EB1C4422EA074C05FB07F235
:101B800006FB07F70CFB06F605FB0CFC16EB0746FD
:101B900042EB174216EB0C4642EB1C456A1854F117
:101BA000000148BF7047B619524141EB0101A3F152
:101BB0000103704795F0000F37D04FEA11424FEA0A
:101BC000144721EA024624EA074C02FB07F106FB10
:101BD00007F70CFB06F402FB0CFC14EB074441EB8B
:101BE00017414FEA154714EB0C4441EB1C4125EA21
:101BF000074C02FB07F506FB07F70CFB06F602FB9A
:101C00000CFC16EB074645EB174516EB0C4645EB6F
:101C10001C42121951F1000148BF7047B6195241D8
:101C200041EB0101A3F1010370474FEA14454FEA6C
:101C3000114724EA054621EA074C05FB07F106FB9C
:101C400007F70CFB06F24FF0000605FB0CFC12EB4D
:101C5000074241EB174112EB0C4251EB1C4148BFCC
:101C60007047921841EB0101A3F101037047000096
:101C70002DE9F84300277E1E07E1052F29D2DFE872
:101C800007F003294F83A900681CC5B200F092FE3B
:101C900080A20021084600F0F9FF01F0E4F80446B4
:101CA0004FF4C87002F058FC00F084FE8CB901209B
:101CB00001F0B6F8044664B97AA20021012000F0D0
:101CC000E5FF4FF4C87002F047FC00F073FE0025FA
:101CD0000127D2E0681CC5B200F06CFE74A200219E
:101CE000084600F0D3FF01F0BEF804464FF4C87078
:101CF00002F032FC00F05EFE8CB9022001F090F898
:101D0000044664B967A20021032000F0BFFF4FF42E
:101D1000C87002F021FC00F04DFE00250227ACE067
:101D200000F048FE65A20021012000F0AFFF01F0A5
:101D30003FF904464FF4C87002F00EFC00F03AFE82
:101D400074B900F037FE61A20021084600F09EFF42
:101D50004FF4C87002F000FC00F02CFE03270EE0E8
:101D600000F028FE5DA20021012000F08FFF4FF45B
:101D7000C87002F0F1FB00F01DFE002500274FF4B3
:101D8000966002F0E9FB78E000F014FE58A2002112
:101D9000012000F07BFF01F0A1F904464FF4C87068
:101DA00002F0DAFB00F006FE74B900F003FE54A264
:101DB0000021012000F06AFF4FF4C87002F0CCFB54
:101DC00000F0F8FD042700E000274FF4966002F0D1
:101DD000C3FB52E000F0EEFD4EA20021012000F016
:101DE00055FF4FF4C87002F0B7FB00F0E3FD4CA2C2
:101DF0000021022000F04AFF00BF02E000F04CFC8E
:101E00000646701C0028F9D048480088B042F4DD2E
:101E1000B1B2022001F0F2F9044664BB00F0CAFD41
:101E200043A20021012000F031FF4FF4C87002F0FE
:101E300093FB00F0BFFD414801F010FA3F480088D5
:101E4000642190FBF1F139480078401C401A00F001
:101E5000FF08302000903548008838490988421A28
:101E600043460021032000F0CFFE40F2DC5002F098
:101E700073FBBDE8F883002700BF00BF4FF4C870B4
:101E800002F06AFB052D00D100E0F6E600BF00BFBE
:101E9000EFE70000506C65617365207072657373C5
:101EA0000000000049742773206E6F726D616C0032
:101EB000507265737320616761696E00436F6E7461
:101EC0007261737420747769636500005468657982
:101ED00020617265206E6F726D616C004661696C85
:101EE00065642C74727920616761696E000000007E
:101EF00067656E6572617465206D6F64656C000066
:101F000047656E657261746520737563636573738D
:101F100000000000496E70757420696400000000C4
:101F2000303C3D49443C3D32393900002402002018
:101F300041444420537563636573730000000020BF
:101F400000BFFEE77047000010B50A2002F004FB56
:101F50000121084800F027FB012807D10648006846
:101F600008B9012000E0002003490860012000F0CA
:101F700065F810BD00000240A082424210B50A2060
:101F800002F0EAFA0821034800F00DFB082000F0F7
:101F900055F810BD0010024010B50A2002F0DCFA1E
:101FA0001021034800F0FFFA102000F047F810BDA0
:101FB000001002400EB50D21022001F0CDFC4FF4BF
:101FC0008070019000208DF8080008208DF809002D
:101FD00001208DF80A0001A800F042F817208DF8C2
:101FE000000000208DF801008DF8020001208DF81E
:101FF0000300684600F098FC0EBD000010B54FF4D9
:10200000807000F021F801280DD1002008490860F7
:1020100001200849C1F88002C1F890020648007802
:10202000401C054908704FF4807000F007F810BD9F
:1020300080024242000042421E0200200149086024
:1020400070470000143C014001460020034A12681A
:102050000A400AB1012000E000207047143C014012
:10206000002123498279002A3AD00A46126803687F
:102070009A430B461A600A1D126803689A430B1DA7
:102080001A60027911440A6803681A430A60184A00
:102090000832126803689A43154B08331A601A1DF8
:1020A000126803689A43124B0C331A604279102A63
:1020B0000ED11A1F126803681A430D4B08331A60B9
:1020C0001A1D126803681A43094B0C331A600DE09D
:1020D0000749427911440A6803681A430A6005E017
:1020E000027911440A6803689A430A607047000045
:1020F000003C0140014621293ED2DFE801F01113E6
:102100001517191B1D1F212325273D3D3D3D292B5B
:102110003D3D3D2D3D3D2F313335373D3D393B0074
:1021200017A02BE017A029E01AA027E01EA025E0A9
:1021300022A023E029A021E030A01FE036A01DE06E
:1021400043A01BE045A019E048A017E04BA000BF4A
:1021500053A013E056A011E059A00FE061A00DE0DC
:1021600064A00BE066A009E069A007E06DA005E0AF
:1021700071A003E073A001E075A000BF00BF70472D
:102180004F4B0000CAFDBEDDB0FCBDD3CAD5B4EDD7
:10219000CEF30000B4ABB8D0C6F7C9CFC3BBD3D021
:1021A000CAD6D6B800000000C2BCC8EBD6B8CEC6AE
:1021B000CDBCCFF1CAA7B0DC00000000D6B8CEC6B7
:1021C000CDBCCFF1CCABB8C9A1A2CCABB5ADB6F804
:1021D000C9FAB2BBB3C9CCD8D5F70000D6B8CEC6C1
:1021E000CDBCCFF1CCABCAAAA1A2CCABBAFDB6F89C
:1021F000C9FAB2BBB3C9CCD8D5F70000D6B8CEC6A1
:10220000CDBCCFF1CCABC2D2B6F8C9FAB2BBB3C920
:10221000CCD8D5F700000000D6B8CEC6CDBCCFF1E3
:10222000D5FDB3A3A3ACB5ABCCD8D5F7B5E3CCAB58
:10223000C9D9A3A8BBF2C3E6BBFDCCABD0A1A3A96F
:10224000B6F8C9FAB2BBB3C9CCD8D5F700000000C4
:10225000D6B8CEC6B2BBC6A5C5E40000C3BBCBD1C1
:10226000CBF7B5BDD6B8CEC600000000CCD8D5F7A8
:10227000BACFB2A2CAA7B0DC00000000B7C3CECA72
:10228000D6B8CEC6BFE2CAB1B5D8D6B7D0F2BAC5B5
:10229000B3ACB3F6D6B8CEC6BFE2B7B6CEA7000091
:1022A000C9BEB3FDC4A3B0E5CAA7B0DC00000000FE
:1022B000C7E5BFD5D6B8CEC6BFE2CAA7B0DC00001E
:1022C000BBBAB3E5C7F8C4DAC3BBD3D0D3D0D0A769
:1022D000D4ADCABCCDBCB6F8C9FAB2BBB3C9CDBC8B
:1022E000CFF10000B6C1D0B420464C41534820B3D2
:1022F000F6B4ED00CEB4B6A8D2E5B4EDCEF300004E
:10230000CEDED0A7BCC4B4E6C6F7BAC50000000054
:10231000BCC4B4E6C6F7C9E8B6A8C4DAC8DDB4EDF3
:10232000CEF30000BCC7CAC2B1BED2B3C2EBD6B8AE
:10233000B6A8B4EDCEF30000D6B8CEC6BFE2C2FA5E
:1023400000000000B5D8D6B7B4EDCEF30000000011
:10235000C4A3BFE9B7B5BBD8C8B7C8CFC2EBD3D009
:10236000CEF3000010B52021002002F049FB044606
:1023700032222DA12DA002F069F814222AA12EA04C
:1023800002F064F84FF47A7002F0E6F84FF47A70D5
:1023900002F0E2F84FF47A7002F0DEF84FF47A704F
:1023A00002F0DAF84FF4967225A128A002F04EF858
:1023B0004FF47A7002F0D0F801202C4908700846DA
:1023C000007800F00100002829D000F0F3FA28A2DC
:1023D0000021084600F05AFC142213A129A002F0A3
:1023E00035F84FF47A7002F0B7F82948294A2AA143
:1023F00003682046FDF7CEFFC8220BA1204602F05D
:1024000025F84FF47A7002F0A7F8C82206A129A097
:1024100002F01CF8C82204A12AA002F017F82146F5
:10242000002002F0DBFA10BD4F4B000041542B435B
:10243000574D4F44453D310041542B5253540000F9
:102440005749464920474F542049500041542B4397
:10245000574A41503D22414C414C41222C22574188
:102460004E475449454A5522000000000200002012
:1024700041544B2D45535020574946492D53544103
:102480000000000041542B4349504D55583D300049
:10249000A40100200300002041542B434950535411
:1024A0004152543D22544350222C222573222C2584
:1024B0007300000041542B4349504D4F44453D317A
:1024C0000000000041542B43495053454E44000046
:1024D000F0B50A4600210023002400BF3DE001259D
:1024E00005FA01F3156805EA03049C4234D1056836
:1024F0004F000326BE40B543056015794E00B54038
:102500000668354305601579012D02D01579022D35
:1025100016D185684F000326BE40B54385605579C6
:102520004E00B540866835438560456801268E407B
:10253000B5434560456896798E40B6B235434560EF
:10254000C5684F000326BE40B543C560D5794E002F
:10255000B540C6683543C560491C1029BFD3F0BDDE
:10256000F0B5002300244D07ED0E02FA05F3CE105E
:1025700000F1200555F826504E07F70E0F26BE40F5
:10258000B543CF1000F1200646F82750CE1000F1D9
:10259000200555F8265045EA0304CE1000F1200529
:1025A00045F82640F0BD0246002013690B400BB1F0
:1025B000012000E00020704741837047018370478D
:1025C00000BFFEE77CB50546EF208DF80000012036
:1025D0008DF801001A480068000E8DF802001848B6
:1025E0000068000C8DF8030015480088000A8DF87B
:1025F0000400134800788DF8050007208DF80600C8
:1026000000208DF807000F49088012E0012001F03A
:10261000A3FF0C48008800F4004050B10020094995
:10262000088069460848FEF765F804460CB1204664
:102630007CBD681E80B20500E8D100BFF8E700004D
:10264000980100209C01002090AD01201CB50121C3
:10265000082000F08DFE0F20009001208DF804006E
:1026600000208DF8060003208DF805006946094812
:10267000FFF72EFFF020009002208DF807000020C9
:102680008DF8040003208DF8050069460148FFF726
:102690001FFF1CBD000C024010B50F206A490880C6
:1026A000102169481838FFF77EFF0446202166484C
:1026B0001838FFF778FF0443402163481838FFF7C4
:1026C00072FF0443802160481838FFF76CFF044311
:1026D000002C76D0642001F03FFF10215A481838B2
:1026E000FFF761FF0446202157481838FFF75BFFCA
:1026F0000443402154481838FFF755FF0443802114
:1027000051481838FFF74FFF0443002CE1D0012057
:102710004D4908800E20891C088010214A4818382D
:10272000FFF741FF08B1002010BD202146481838AE
:10273000FFF739FF08B10120F6E740214248183879
:10274000FFF731FF08B10220EEE780213E4818383C
:10275000FFF729FF08B10320E6E702203A49088085
:102760000D20891C0880102137481838FFF71BFFFF
:1027700008B10420D8E7202133481838FFF713FFA9
:1027800008B10520D0E740212F481838FFF70BFF8C
:1027900008B10620C8E780212B481838FFF703FF4F
:1027A00008B10720C0E70420274908800B20891CB6
:1027B0000880102124481838FFF7F5FE10B10820D2
:1027C000B2E73DE0202120481838FFF7ECFE08B1C1
:1027D0000920A9E740211C481838FFF7E4FE08B19A
:1027E0000A20A1E7802118481838FFF7DCFE08B15D
:1027F0000B2099E70820144908800720891C0880CD
:10280000102111481838FFF7CEFE08B10C208BE7D5
:1028100020210D481838FFF7C6FE08B10D2083E7C8
:10282000402109481838FFF7BEFE08B10E207BE7AB
:10283000802105481838FFF7B6FE08B10F2073E76E
:102840004FF0FF3070E70000180C02401CB501216A
:10285000102000F08DFD1820009000208DF804005D
:1028600001208DF8070003208DF805006946024815
:10287000FFF72EFE1CBD0000001002401CB5012118
:10288000202000F075FD4FF4C060009000208DF80E
:10289000060001208DF8040000208DF807000320B9
:1028A0008DF8050069460248FFF712FE1CBD0000C6
:1028B00000140240012802D002280AD104E04FF49B
:1028C0000071054A118005E04FF48061024A1180D1
:1028D00000E000BF00BF704718140240012802D07A
:1028E00002280AD104E04FF40071054A118005E086
:1028F0004FF48061024A118000E000BF00BF7047C2
:102900001A14024000BF0549098801F0400100295E
:10291000F9D00249091D08807047000000440040BA
:1029200000BFFEE77047000070B5002100230F22B2
:10293000C4781CB3174C246804F4E064C4F5E06464
:10294000C4F30721C1F10404E3B20A4144789C4076
:10295000E1B28478144021430C07210E0E4C057817
:102960006155047804F01F050124AC4005786D1111
:10297000AD0005F1E025C5F8004109E0047804F058
:102980001F050124AC40054D0678761145F8264018
:1029900070BD00000CED00E000E400E080E100E02C
:1029A00002490143024A1160704700000000FA0525
:1029B0000CED00E070B5002419E004F1B001C8B2DC
:1029C000002100F07FF90021084600F07BF900218A
:1029D000102000F077F9002505E00121002000F02B
:1029E00071F9681CC5B2802DF7DB601CC4B2082CDD
:1029F000E3DB70BD1CB50121022000F0B9FC4FF4EF
:102A00008060009001208DF8040000208DF8060001
:102A100002208DF8050069465148FFF759FD4FF433
:102A200080614F48FFF7CAFD4FF47040009069463F
:102A30004C48FFF74DFD4FF470414A48FFF7BEFD8B
:102A40004FF480414748FFF7B9FD642001F084FD51
:102A50004FF480414348FFF7AFFD642001F07CFD57
:102A60004FF480413F48FFF7A9FD0021AE2000F060
:102A700029F90021084600F025F90021102000F076
:102A800021F90021402000F01DF90021812000F0F3
:102A900019F90021CF2000F015F90021A12000F044
:102AA00011F90021C82000F00DF90021A62000F046
:102AB00009F90021A82000F005F900213F2000F0CD
:102AC00001F90021D32000F0FDF80021084600F0B4
:102AD000F9F80021D52000F0F5F80021802000F061
:102AE000F1F80021D92000F0EDF80021F12000F0EC
:102AF000E9F80021DA2000F0E5F80021122000F0CA
:102B0000E1F80021DB2000F0DDF80021402000F09A
:102B1000D9F80021202000F0D5F80021022000F093
:102B2000D1F800218D2000F0CDF80021142000F014
:102B3000C9F80021A42000F0C5F80021A62000F06B
:102B4000C1F80021AF2000F0BDF80021AF2000F057
:102B5000B9F8FFF72FFF0021084600F005F81CBD6B
:102B6000000C02400004024070B504460D4605F119
:102B7000B001C8B2002100F0A5F8102141EA1410FC
:102B8000002100F09FF804F00F0141F00100002146
:102B900000F098F870BD00002DE9F04107460E46A0
:102BA000904600250024A8F12000C5B27F2F02DD49
:102BB0000027B01CC6B231463846FFF7D5FF0024C7
:102BC00008E004EB05110F4A505C012100F07AF88F
:102BD000601CC4B2082CF4DB701CC1B23846FFF78D
:102BE000C3FF002409E004EB05110831054A505CDD
:102BF000012100F067F8601CC4B2082CF3DBBDE8CB
:102C0000F0810000586100082DE9FF5F07469146FA
:102C10001D460E9E4FF0000A002433E0281B401E84
:102C2000C1B20A2001F00AFFB9FBF0F00A21B0FBA3
:102C3000F1F201FB1208BAF1000F13D1681EA04295
:102C400010DDB8F1000F0BD1B34606EBDB71491074
:102C500001FB0471C8B220220199FFF79DFF0FE02C
:102C60004FF0010AB34606EBDB71491001FB04711A
:102C7000C8B208F13001CAB20199FFF78DFF00BF59
:102C8000601CC4B2AC42C9DBBDE8FF9F2DE9F04136
:102C900004460F46154600260EE0AA5D394620463A
:102CA000FFF77AFF04F10800C4B2782C02DD00249B
:102CB000B81CC7B2701CC6B2A85D0028EDD1BDE833
:102CC000F081000070B504460E462EB14FF400416D
:102CD0001C48FFF773FC04E04FF400411948FFF76C
:102CE0006BFC4FF480611848FFF766FC00251BE081
:102CF0004FF480511348FFF75FFC04F0800028B1C7
:102D00004FF400510F48FFF759FC04E04FF4005115
:102D10000C48FFF751FC4FF480510A48FFF74EFC76
:102D20006006040E681CC5B2082DE1DB4FF480611B
:102D30000548FFF743FC4FF400410248FFF73EFC13
:102D400070BD000000040240000C02407CB500256C
:102D500001215E2000F03CFB0820009000208DF84F
:102D6000040001208DF8070002208DF80500694657
:102D70002748FFF7ADFB08212648FFF71FFCFF207F
:102D8000009000208DF8040001208DF807006946AE
:102D90002148FFF79DFB7520009000208DF804006E
:102DA0008DF8060069461B48FFF792FB752119480C
:102DB000FFF704FC00F0A0FB8021122000F0E0FCF3
:102DC00008B101207CBD322001F0C6FB0B2000F0D1
:102DD00027FC0446732C01D00220F3E70A2000F000
:102DE0001FFC0446762C01D00220EBE700250AE008
:102DF0000A4A02EB45025178084A12F8150000F021
:102E0000BFFC681C85B2A82DF2D30020DAE70000D1
:102E10000000024000100240000C02404867000819
:102E20002DE9F041054600F0E0FD00F0B5FD012080
:102E300000F0D5FD042000F0E0FD022000F0E7FDE9
:102E40002846FFF75FFDEF1D384600F0BFFD4FF449
:102E5000FA60FFF7B7FB06460EB1747A00E0FF2474
:102E60002046BDE8F08170B500F0BFFD00F094FD94
:102E7000012000F0B4FD032000F0BFFD012000F0B0
:102E8000C6FD0526304600F0A1FD4FF4FA60FFF7BD
:102E900099FB05460DB16C7A00E0FF24204670BD19
:102EA00010B5044600F0A1FD00F076FD0120FFF70B
:102EB00029FD0020FFF726FD0020FFF723FDC82095
:102EC00001F04AFB1448008800F4004008B313489E
:102ED0000078EF281AD111484078012816D10F4800
:102EE0008079072812D10D48807800060B49C978EF
:102EF00000EB01400949097900EB012007494979B4
:102F00000844206000200449088010BD00200249C8
:102F100008800120F9E700009C01002090AD01200D
:102F20002DE9F04781460D4616461F4600F05DFD2F
:102F300000F032FD012000F052FD082000F05DFDA0
:102F40001B2000F064FD4846FFF7DCFC2812FFF769
:102F5000D9FCE8B2FFF7D6FC3012FFF7D3FCF0B291
:102F6000FFF7D0FC09F1240000EB2520E9B208446A
:102F700000EB2620F1B200EB010A504600F026FDDE
:102F80004FF4FA60FFF71EFB044664B194F8098021
:102F9000E07AA17A00EB01203880607B217B00EB96
:102FA0000120788001E04FF0FF084046BDE8F0873F
:102FB00070B500F01AFD00F0EFFC012000F00FFDED
:102FC000032000F01AFD032000F021FD0726304603
:102FD00000F0FCFC4FF4FA60FFF7F4FA05460DB17F
:102FE0006C7A00E0FF24204670BD00002DE9F0411E
:102FF000054600F0FAFC00F0CFFC012000F0EFFCE9
:10300000032000F0FAFC0F2000F001FD13273846E2
:1030100000F0DCFC4FF47A70FFF7D4FA0446BCB140
:10302000667AE07BA17B00EB01202880607CA870A1
:10303000A07C0006E17C00EB0140217D00EB01203B
:10304000617D08446860E07D2872607E687200E0FF
:10305000FF26A6B929880FA0FDF790F9A97813A03B
:10306000FDF78CF915A06968FDF788F9687A4FF4C7
:10307000165210FB02F114A0FDF780F907E030466C
:10308000FFF738F88046414612A0FDF777F9304641
:10309000BDE8F0810D0AC4A3BFE9D7EEB4F3D6B8FA
:1030A000CEC6C8DDC1BF3D25640000000D0AB6D400
:1030B000B1C8B5C8BCB63D25640000000D0AB5D83E
:1030C000D6B73D25780000000D0AB2A8CCD8C2CAF8
:1030D0003D2564000D0A25730000000070B500F066
:1030E00084FC00F059FC012000F079FC032000F082
:1030F00084FC052000F08BFC0926304600F066FCBD
:103100004FF4FA60FFF75EFA05460DB16C7A00E005
:10311000FF24204670BD00002DE9F041044600F078
:1031200064FC00F039FC012000F059FC072000F09D
:1031300064FC152000F06BFC200EFFF7E3FBC4F3EA
:103140000740FFF7DFFBC4F30720FFF7DBFBE0B22C
:10315000FFF7D8FB1D2000EB1460C4F307410844BF
:10316000C4F307210844E1B24718384600F02EFCAA
:103170000E4804604FF4FA60FFF724FA06460EB1D9
:10318000757A00E0FF25094804601DB908A0FDF725
:10319000F5F807E02846FEF7ADFF8046414609A056
:1031A000FDF7ECF82846BDE8F0810000980100200A
:1031B0000D0AC9E8D6C3B5D8D6B7B3C9B9A6A3A175
:1031C000000000000D0A2573000000001CB501215D
:1031D000084600F0CDF84020009000208DF8040053
:1031E00002208DF8070003208DF80500694602488B
:1031F000FFF76EF91CBD0000000002402DE9F04110
:1032000006460C4600F0F1FB00F0C6FB012000F082
:10321000E6FB062000F0F1FB062000F0F8FB30464C
:10322000FFF770FB2012FFF76DFBE0B2FFF76AFBC0
:1032300006F10D0000EB2420E1B200EB010840464E
:1032400000F0C4FB4FF4FA60FFF7BCF907460FB17A
:103250007D7A00E0FF252846BDE8F0812DE9F041A8
:10326000064600F0C2FB00F097FB012000F0B7FB20
:10327000032000F0C2FB1D2000F0C9FB21273846C7
:1032800000F0A4FB4FF4FA60FFF79CF9044634B158
:10329000657AE07AA17A00EB0120308000E0FF251A
:1032A0003DB9E07AA27A00EB022107A0FDF766F8AB
:1032B00007E02846FEF71EFF8046414607A0FDF7BF
:1032C0005DF82846BDE8F0810D0AD3D0D0A7D6B866
:1032D000CEC6B8F6CAFD3D25640000000D0A257370
:1032E000000000002DE9F04706460D4600F07DFB8A
:1032F00000F052FB012000F072FB052000F07DFB86
:103300000E2000F084FB3046FFF7FCFA2846FFF75A
:10331000F9FA701900F11408404600F057FB4FF419
:10332000FA60FFF74FF907460FB17C7A00E0FF24FF
:103330001CB907A0FDF722F807E02046FEF7DAFEE9
:103340008146494607A0FDF719F82046BDE8F087F9
:103350000D0AC9E8D6C3B2CECAFDB3C9B9A6A3A1A6
:10336000000000000D0A25730000000070470000F7
:1033700029B1064A12680243044B1A6004E0034A6A
:1033800012688243014B1A607047000030380240D7
:1033900029B1064A12680243044B1A6004E0034A4A
:1033A00012688243014B1A607047000040380240A7
:1033B00029B1064A12680243044B1A6004E0034A2A
:1033C00012688243014B1A607047000020380240A7
:1033D00029B1064A12680243044B1A6004E0034A0A
:1033E00012688243014B1A60704700004438024063
:1033F00029B1064A12680243044B1A6004E0034AEA
:1034000012688243014B1A60704700002438024062
:10341000F0B5002100220024022500260223324FAD
:103420003F6807F00C0121B1042905D0082937D1E4
:1034300005E02E4F076036E02D4F076033E02A4F3E
:103440003F1F3F68C7F38056274F3F1F3F6807F075
:103450003F036EB1264FB7FBF3F7DFF88CC0ACF13A
:10346000040CDCF800C0CCF3881C07FB0CF40CE067
:103470001E4FB7FBF3F7DFF870C0ACF1040CDCF8BB
:1034800000C0CCF3881C07FB0CF4174F3F1F3F68AC
:10349000C7F301477F1C7D00B4FBF5F7076002E02E
:1034A000124F076000BF00BF0F4F3F6807F0F001E9
:1034B0000909104F7A5C0768D74047600A4F3F6898
:1034C00007F4E051890A0B4F7A5C4768D740876060
:1034D000054F3F6807F46041490B064F7A5C476827
:1034E000D740C760F0BD0000083802400024F40057
:1034F00000127A00880100201CB501211420FFF77A
:1035000067FF4FF40050009000208DF80400022067
:103510008DF8050069461248FEF7DAFF08211148C8
:10352000FFF74CF80220009001208DF804000020E5
:103530008DF8060069460A48FEF7CAFF02210848CE
:10354000FFF73CF80748006820F040600549086034
:103550000348006840F08060014908601CBD00001D
:10356000001002400008024010B5322001F010F8AF
:1035700001200B4908600B49C1F88402322001F098
:1035800007F8002008490860322001F001F8002007
:103590000649C1F8B402322000F0FAFF10BD000065
:1035A000B4024142000042428402424200004142D1
:1035B00070B500241648006820F040601449086087
:1035C000082515E0322000F0E3FF012011490860D2
:1035D0006006040E1048D0F8340208B1601CC4B272
:1035E000322000F0D5FF00200A490860681EC5B2ED
:1035F000002DE7DC0648006820F0406004490860C0
:103600000648006840F0806004490860204670BDAC
:103610000008024084024242000041420010024081
:1036200070B50446002500F023F8422000F054F85D
:10363000642000F0ADFF204600F04EF8642000F05A
:10364000A7FF00F02FF8642000F0A2FF00F010F8B0
:10365000432000F041F8642000F09AFFFFF7A8FF34
:103660000546FFF781FF00F01DF8284670BD0000F9
:1036700010B50120094908600949C1F884023220C7
:1036800000F086FF002005490860322000F080FF2E
:1036900000200349C1F8840210BD0000B402414279
:1036A0000000424210B5002009490860322000F0B5
:1036B0006FFF01200749C1F88402322000F068FF43
:1036C000012003490860322000F062FF10BD0000B5
:1036D000B40241420000424270B5044600261AE09E
:1036E00004F0800018B101201F49086002E00020AA
:1036F0001D4908606006040E322000F049FF0120D9
:103700001A490860322000F043FF00201849C1F830
:103710008402701CC6B2082EE2DB1648006820F056
:10372000406014490860322000F032FF01200F4948
:103730000860322000F02CFF0F48D0F8340208B1A6
:10374000012500E0002500200849086009480068BC
:1037500020F04060074908600848006840F0806039
:1037600006490860284670BDB402414284024242C4
:1037700000004242000802400000414200100240A6
:1037800070B505460C460026FFF772FF4220FFF792
:10379000A3FF00B10126642000F0FAFE2846FFF7DF
:1037A0009BFF00B10126642000F0F2FE2046FFF7E7
:1037B00093FF00B10126FFF775FF304670BD000092
:1037C00000B587B001210846FFF7D2FD01210803AB
:1037D000FFF7FEFD3820059002208DF8180000202C
:1037E0008DF81A0003208DF8190001208DF81B00B8
:1037F00005A92248FEF76CFE052203211F48FEF7AB
:10380000AFFE052204211D48FEF7AAFE052211463F
:103810001A48FEF7A5FE01210803FFF7E9FD002184
:103820004FF48050FFF7E4FD0020ADF800004FF4A6
:103830008270ADF802000020ADF804000220ADF85F
:1038400006000120ADF808004002ADF80A0038205B
:10385000ADF80C000020ADF80E000720ADF8100008
:103860006946074800F058F80121054800F03AF889
:10387000FF2000F007F807B000BD00000004024080
:103880000030014010B5044600BF02210A4800F094
:1038900035F80028F9D02146074800F03BF800BF72
:1038A0000121054800F02AF80028F9D0024800F06C
:1038B0002EF8C0B210BD00000030014010B5044623
:1038C000074800884FF6C771084005490880084638
:1038D0000088204308800121014800F003F810BD52
:1038E0000030014021B1028842F04002028004E031
:1038F00002884FF6BF731A400280704702460020CC
:1039000013890B400BB1012000E0002070470146F5
:10391000888970478181704710B50022028802F4BF
:1039200041520B884C8823438C882343CC88234303
:103930000C8923434C8923438C892343CC8923431B
:103940001A430280838B4FF2FF74234083830B8AD8
:10395000038210BD7047000030B500228B071C0F9A
:103960000F2303FA04F20B4B8C1053F824309343CB
:10397000084C8D1044F8253023468C1053F8243021
:103980008C07240F00FA04F42343024C8D1044F8F2
:10399000253030BD0838014010B50B490968080EC4
:1039A000FEF7B0FF08480068C0F30740FEF7AAFF23
:1039B00005480088C0F30720FEF7A4FF02490878F5
:1039C000FEF7A0FF10BD00009801002010B50446CE
:1039D0002012FEF797FFE0B2FEF794FF10BD10B57E
:1039E00004462046FEF78EFF10BD10B5EF20FEF70F
:1039F00089FF0120FEF786FF10BD10B50446C4F311
:103A00000720FEF77FFFE0B2FEF77CFF10BD10B588
:103A100004462046FEF776FF10BD00000CB50020DE
:103A2000019000903448006840F4803032490860CA
:103A300000BF3148006800F4003000900198401C3D
:103A40000190009818B90198B0F5A04FF1D12A481B
:103A5000006800F4003010B10120009001E0002067
:103A600000900098012846D123484030006840F07B
:103A700080502149403108602048006840F44040AF
:103A80001E4908601C48083000681B49083108605E
:103A90000846006840F4004008600846006840F4AA
:103AA000A05008601648091F0860081F006840F011
:103AB0008070091F086000BF0F48006800F00070A8
:103AC0000028F9D040F205700E4908600A48083015
:103AD000006820F0030008490831086008460068C3
:103AE00040F00200086000BF03480830006800F0A2
:103AF0000C000828F8D10CBD0038024000700040CE
:103B000008544007003C0240042808D14FF0E0214F
:103B1000096941F004014FF0E022116107E04FF024
:103B2000E021096921F004014FF0E02211617047A2
:103B30007047000010B51548006840F47000134944
:103B400008601348006840F0010011490860002037
:103B50000F49083108600E4800680E4908400C49BA
:103B600008600D48091D0860081F006820F48020C7
:103B7000091F0860002006490C310860FFF74EFF5E
:103B80004FF0006001498039086010BD88ED00E009
:103B900000380240FFFFF6FE1030002410B501216E
:103BA000044800F016F918B10121024800F0F3F8BA
:103BB00010BD00000004004010B501210A4800F0CB
:103BC00008F901280AD109490869804700210648F7
:103BD00000F024F96421044800F01EF90121024894
:103BE00000F0D9F810BD000000080040940000204B
:103BF00010B52C48007800F0800000284CD101213D
:103C0000294800F0E6F8D0B12648007800F04000DE
:103C1000A8B12448007800F03F003F280AD121488D
:103C2000007840F080001F4908704FF6FF701F4970
:103C3000088004E01B480078401C1A4908700221E3
:103C4000194800F0C6F838B31648007800F0400074
:103C500078B11448007840F080001249087012488A
:103C600000F0A8F81149088000210F4800F0CBF8B7
:103C700012E000200B4908700C49088000210A4816
:103C800000F0CCF80748007840F040000549087083
:103C90000221054800F0B7F80321034800F07BF843
:103CA00010BD00009E010020000C0040A00100207B
:103CB0007FB505460C4601211020FFF769FB0295F0
:103CC000ADF804400020ADF80C00ADF8060001A9E5
:103CD0000D4800F0A5F8012241210B4800F08AF8B8
:103CE0000121094800F05AF81D208DF8000001203C
:103CF0008DF8010003208DF8020001208DF80300EB
:103D00006846FEF711FE7FBD0010004010B501218E
:103D1000094800F05EF868B10848008840F40040A7
:103D2000064908800121044800F035F800210248C6
:103D300000F034F810BD0000001400409C01002089
:103D40007FB505460C4601212020FFF721FB019598
:103D5000ADF800400020ADF80800ADF8020069465B
:103D60000A4800F05DF801221146084800F042F8C8
:103D700037208DF80C0001208DF80D008DF80E0015
:103D80008DF80F0003A8FEF7CFFD7FBD00140040A3
:103D9000CA4302827047CA430282704721B1028837
:103DA00042F00102028004E002884FF6FE731A40DE
:103DB000028070470146486B70470146486A704769
:103DC00002460020138A0B400BB1012000E00020C6
:103DD000704730B50246002000230024158A05EA0A
:103DE0000103958905EA010413B10CB1012000E03B
:103DF000002030BD1AB183890B43838102E083899F
:103E00008B43838170470A460021018C4FF6FD7376
:103E10001940114301847047C16270474162704785
:103E200000220288184B98420ED0184B98420BD0B3
:103E3000B0F1804F08D0164B984205D0154B9842F0
:103E400002D0154B984204D14FF68F731A404B881D
:103E50001A43124B984207D0114B984204D04FF6A8
:103E6000FF431A400B891A4302804B68C3620B88D8
:103E70000385054B984202D0044B984201D18B7ABE
:103E80000386012383827047000001400004014043
:103E90000004004000080040000C004000100040FA
:103EA000001400407FB504460D4601210420FFF7B1
:103EB0006FFAADF800500020ADF802000194ADF8A3
:103EC000080069460D48FFF7ABFF012211460B4879
:103ED000FFF790FF01210948FFF760FF1E208DF8D2
:103EE0000C0003208DF80D0002208DF80E0001203B
:103EF0008DF80F0003A8FEF717FD7FBD00080040F6
:103F000010B540F225511D4800F03FF910B31B4891
:103F100000F0F4F9C4B21A48008800F40040C8B9AF
:103F20001748008800F4804060B10A2C03D00020BC
:103F30001349088020E01248008840F400401049EE
:103F4000088019E00D2C06D10D48008840F480400F
:103F50000B49088010E00A480088C0F30D000949A9
:103F60000C5407480088401C054908800846008812
:103F7000C72801DD0020088010BD000000100140AE
:103F8000200000203002002010B540F225511648D4
:103F900000F0FBF800B3144800F0B0F9C4B21348C5
:103FA000008800F40040B8B910480088B0F5C87F18
:103FB00013DA00210E48FFF731FF0C48008818B9CA
:103FC00001210B48FFF7EAFE084801880088401CE1
:103FD000064A10800748445405E00448008840F42D
:103FE00000400249088010BD004400409C010020B0
:103FF0000014004090AD012010B540F22551164844
:1040000000F0C3F800B3144800F078F9C4B21348C4
:10401000008800F40040B8B910480088B0F5C87FA7
:1040200013DA00210E48FFF7F9FE0C48008818B992
:1040300001210B48FFF7B2FE084801880088401CA8
:10404000064A10800748445405E00448008840F4BC
:1040500000400249088010BD004800401C020020BA
:1040600000140040B0B0012021B1828942F4005216
:10407000828104E082894DF6FF731A408281704785
:1040800010B504463248844208D101211020FFF7C0
:10409000AFF900211020FFF7ABF957E02D4884421B
:1040A00009D101214804FFF783F900214FF40030C2
:1040B000FFF77EF94AE02848844209D101218804AB
:1040C000FFF776F900214FF48020FFF771F93DE00A
:1040D0002248844209D10121C804FFF769F900216F
:1040E0004FF40020FFF764F930E01D48844209D105
:1040F00001210805FFF75CF900214FF48010FFF75C
:1041000057F923E01748844208D101212020FFF706
:104110006FF900212020FFF76BF917E01248844265
:1041200009D101218807FFF743F900214FF08040B2
:10413000FFF73EF90AE00D48844207D1012140050E
:10414000FFF736F900216005FFF732F910BD0000D6
:10415000001001400044004000480040004C004076
:10416000005000400014014000780040007C0040F6
:1041700002460020B1F5007F00D100BF13880B403C
:104180000BB1012000E00020704770B5024600240A
:1041900000230025002040F66A16B14200D100BF7E
:1041A000C1F3421501F01F03012606FA03F3012DA6
:1041B00002D19689334006E0022D02D1168A33409F
:1041C00001E0968A33400C12012606FA04F41688A0
:1041D000344013B10CB1012000E0002070BDF0B5F7
:1041E0000346002400260025002040F66A17B94245
:1041F00000D100BF1846C1F3421401F01F06012789
:1042000007FA06F5012C01D10C3004E0022C01D193
:10421000103000E014301AB107682F43076002E045
:104220000768AF430760F0BD2DE9FF4705460E461E
:104230000024A14600BFA046B08900B100BF2C8A6F
:1042400024F44054F08804432C82AC8941F20C6081
:104250008443B08831890843718908430443AC81A1
:10426000AC8A24F44074B0890443AC826846FFF7FA
:10427000CFF82048854202D01F48854202D1DDF8A0
:104280000C9001E0DDF80890A88900F4004040B1EE
:1042900009EBC90000EB091031684900B0FBF1F7E8
:1042A00007E009EBC90000EB091031688900B0FB99
:1042B000F1F76420B7FBF0F004012009642101FB51
:1042C0001078A88900F4004040B1322000EBC8000B
:1042D000B0FBF1F000F00700044308E0322000EBEF
:1042E00008106421B0FBF1F000F00F0004432C81B2
:1042F000BDE8FF8700100140001401400146888896
:10430000C0F308007047C1F308028280704700BF05
:10431000FEE700001CB501210220FFF729F801216A
:104320004020FFF725F84FF48040009001208DF8E1
:10433000040000208DF8060003208DF80500012000
:104340008DF8070069460D48FEF7C2F880200090FE
:1043500069460B48FEF7BCF880210948FEF72EF9A4
:10436000012008490860FFF72BFA0020FFF7A6FAA2
:1043700000F00CF8044908801CBD00000004024055
:1043800000180240B88240422002002010B50024EC
:1043900000200E4908609020FFF774FA0020FFF714
:1043A00071FA0020FFF76EFA0020FFF76BFAFF208A
:1043B000FFF768FA44EA0024FF20FFF763FA04439A
:1043C00001200349C1F8B802204610BDB88240421E
:1043D0000080404203B401984100009850EAC12097
:1043E00018BF04204A0D18BF40F0010040F2FF72D0
:1043F000B2EB515F08BF40F00200012808BF052062
:1044000002B0704730380A2801D2012070470020DE
:10441000704700BF7047000070B50446002509488A
:10442000008800F4004058B1002006490988C1F313
:104430000E01054A505421461046FCF75BF905462B
:10444000284670BD1C020020B0B001202DE9F041CB
:1044500006460D46144600270020134908803146C1
:1044600012A000F04FFBE5B1DCB113E00A2000F030
:1044700073F80D48008800F4004058B12846FFF753
:10448000CBFF20B129460BA0FBF778FF06E0002008
:1044900005490880601E80B20400E7D100BF04B95E
:1044A00001273846BDE8F0811C02002025730D0A63
:1044B0000000000061636B3A25730D0A00000000E4
:1044C0002DE9F04106460D4614460027002011490B
:1044D0000880314610A000F015FBC5B1BCB10FE05B
:1044E0000A2000F039F80B48008800F4004038B189
:1044F0002846FFF791FF00B106E00020054908803B
:10450000601E80B20400EBD100BF04B90127384619
:10451000BDE8F0811C0200202573000010B50446A0
:104520006FF00400FFF7F0FAE11704EB5171C1F3EB
:10453000C701074A11701046007800EB4001C1EB3B
:10454000C0104FF6FF7101EAC0000249088010BD9B
:10455000180000201A00002070B504464FF40770C0
:1045600094FBF0F0C6B24FF4077094FBF0F100FB3F
:10457000114085B205E04FF4077000F02FF8701E6F
:10458000C6B2002EF7D115B1284600F027F870BD4D
:104590000146114A12784A434FF0E0235A61002243
:1045A0009A611A46126942F001021A6100BF4FF087
:1045B000E022106900F001021AB100F48032002AF2
:1045C000F5D04FF0E022126922F001024FF0E02313
:1045D0001A6100229A617047180000200146114AB2
:1045E00012884A434FF0E0235A6100229A611A462A
:1045F000126942F001021A6100BF4FF0E022106917
:1046000000F001021AB100F48032002AF5D04FF018
:10461000E022126922F001024FF0E0231A61002229
:104620009A6170471A00002000BF054A128802F004
:104630004002002AF9D0C2B2014B9A8070470000B4
:104640000010014088B0FEF719F9FEF7FFF84FF4AB
:10465000A060FEF7A5F94FF49631002000F0D0F9E4
:10466000A820FFF75BFFFDF7F1FFFEF7C3F9FEF7A8
:10467000A1F94FF4E13000F06DFA4FF4614000F021
:10468000C1FA4FF4E13000F027FBFEF79FFD002058
:1046900000F00EF9022000F00BF9FFF73BFE57A2E5
:1046A00000210846FEF7F2FAFDF75CFE54A2002155
:1046B0000846FEF7EBFAFEF749FB41F61F4142F2CE
:1046C0001070FFF7F5FAFDF775FC41F61F4142F255
:1046D0001070FFF7EDFA00204A4908600220FEF74B
:1046E000E9F80120FEF7E6F807E04FF4C870FFF79D
:1046F00033FF4FF44870FFF72FFF4348FEF7D0FB1E
:104700000028F2D14FF47A70FFF726FF0220FEF75F
:10471000D1F80120FEF7CEF83C48FEF79FFD054694
:104720003B48FEF763FC054675B939488378008835
:1047300036490988421A37A16846FBF72BFE6A46BC
:1047400000210846FEF7A2FA00BF002037490860A2
:104750006420FFF701FF4FE04FF0FF34FDF79CFFAF
:1047600004461CBB0220FEF7B9F802E00120FEF768
:10477000B5F82E4800680128F8D14FF41670FFF7FD
:10478000EBFE0120FEF796F84FF41670FFF7E4FEFB
:1047900000F060F904461CB10220FEF78BF82BE014
:1047A000FDF766FA0120FEF799F825E0022C03D107
:1047B0000120FEF793F81FE0012C06D10220FEF73E
:1047C00079F80120FEF776F816E0042C05D1642272
:1047D000002117A0FFF73AFE0EE0052C05D1642258
:1047E000002114A0FFF76CFE06E0062C04D1642221
:1047F000002111A0FFF72AFEAEE700003100000003
:104800003200000094024242980100200000002083
:104810002402002063617061636974793A25642021
:104820006C6576656C3A2564000000001802404211
:10483000313233002B2B2B0041542B43495053452D
:104840004E4400002DE9F04104460E461548005D37
:1048500038B9144820380168204688470120BDE84F
:10486000F081114850F82400B04219D90F4850F88F
:104870002400B6FBF0F10B480C3850F8240030F857
:104880001120002508E0002306480C3850F82400C9
:104890004F1920F817306D1C9542F4DB0020DEE73D
:1048A0000220DCE744000020245F0008185F0008B5
:1048B00010B504460C4951F824104A000B4951F830
:1048C0002400002100F0B0F8094951F824200749DC
:1048D0000C3951F82400002100F0A6F8012103480A
:1048E0000C30015510BD00000C5F0008380000209E
:1048F000245F00082DE9F04704460F460025A9462D
:104900002348005D20B922482038016820468847A6
:104910001FB94FF0FF30BDE8F0871E4850F8240063
:10492000B7FBF0F61B4850F82400B7FBF0F100FB92
:10493000117000B1761C184850F82400451E22E082
:1049400013480C3850F8240030F8150010B909F15C
:10495000010901E04FF00009B14513D14FF0000803
:1049600009E00B480C3850F8240005EB080220F849
:10497000126008F10108B045F3D3064850F824004E
:104980006843C8E76D1E002DDADA4FF0FF30C2E74A
:1049900044000020185F00080C5F000810B50146B5
:1049A0000023002207E00B4850F8210030F81200E5
:1049B00000B15B1C521C084850F821009042F2D80C
:1049C00064205843044C54F82140B0FBF4F0C0B2CA
:1049D00010BD0000380000200C5F000870B50546CF
:1049E0000C4604B970BD054850F82500261A31461A
:1049F0002846FFF727FF00BFF4E700002C00002047
:104A000070B504460E4631462046FFF773FF054653
:104A1000681C08B9002070BD024850F824002844E2
:104A2000F9E700002C00002030B5034601E003F850
:104A3000011B1400A2F10102F9D130BD10B50246EC
:104A4000012000E050430B00A1F10104E1B2F9D1D3
:104A500010BD000038B50220FDF740FFFEF703FA55
:104A60000446002C34D10120FEF7DAF90446002C6C
:104A700028D1184802886B4600210120FEF750FA21
:104A80000446ECB914A200210120FEF7FFF84FF410
:104A9000FA610020FFF7B4FF0546BDF80230BDF80B
:104AA000002010A12846FBF775FC2A4600210220B1
:104AB000FEF7ECF829460020FFF790FF012038BDF3
:104AC0000020FCE74FF41670FFF746FDFDF772FF7C
:104AD0000020F4E72402002046696E645375636584
:104AE0007373000045786973743A49443A25642029
:104AF00020706F696E743A256400000001460868F2
:104B0000704700000FB438B505A800900F48009A10
:104B10000499FBF721FC002000900C48FBF7FCFDFA
:104B200085B200240DE000BF40210948FFF720FBBB
:104B30000028F9D00548015D0548FFF7E4FB601C3B
:104B400084B2AC42EFDB38BC5DF814FB20AF01202F
:104B50000048004010B588B0044601210846FEF721
:104B600007FC01211020FEF733FC0722092123480E
:104B7000FDF7F6FC07220A212048FDF7F1FC4FF46F
:104B8000C060069002208DF81C008DF81D000020EA
:104B90008DF81E0001208DF81F0006A91748FDF7AB
:104BA00097FC02940020ADF80C00ADF80E00ADF8B3
:104BB0001000ADF814000C20ADF8120002A9104846
:104BC000FFF732FB01210E48FFF74EFA012240F2B7
:104BD00025510B48FFF703FB25208DF80400022028
:104BE0008DF8050000208DF8060001208DF80700E3
:104BF00001A8FDF799FE08B010BD000000000240BA
:104C00000010014010B588B0044601210846FEF7A7
:104C1000AFFB01214804FEF7BBFB2B48FFF730FA3E
:104C2000072202212948FDF79BFC07220321274880
:104C3000FDF796FC0C20059002208DF818008DF8E9
:104C4000190000208DF81A0001208DF81B0005A91D
:104C50001E48FDF73DFC01940020ADF80800ADF8BA
:104C60000A00ADF80C00ADF810000C20ADF80E00F5
:104C700001A91548FFF7D8FA01211348FFF7F4F905
:104C8000012240F225511048FFF7A9FA26208DF89D
:104C90001C0001208DF81D0000208DF81E00012051
:104CA0008DF81F0007A8FDF73FFE42F2CF0140F24A
:104CB000E730FFF745F80020054908800021054846
:104CC000FFF76CF808B010BD00440040000002403F
:104CD0009C0100200014004010B588B0044601215A
:104CE0008804FEF755FB2C48FFF7CAF907220A2172
:104CF0002A48FDF735FC07220B212848FDF730FC38
:104D00004FF44060059002208DF818008DF81900CE
:104D100000208DF81A0001208DF81B0005A91F48FE
:104D2000FDF7D6FB01940020ADF80800ADF80A00AD
:104D3000ADF80C00ADF810000C20ADF80E0001A984
:104D40001548FFF771FA01211348FFF78DF9012289
:104D500040F225511048FFF742FA27208DF81C0039
:104D600002208DF81D0003208DF81E0001208DF813
:104D70001F0007A8FDF7D8FD42F2CF0140F2E7304F
:104D8000FEF7DEFF00200649088000210548FFF7F6
:104D900005F808B010BD00000048004000040240C3
:104DA0001C0200200014004030B595B0054613AB3E
:104DB00012AA09A9284600F039FA044614B120467F
:104DC00015B030BD0020149026E0224909689DF8F6
:104DD000502001EBC20113AB11AA486801A900F0F1
:104DE00025FA04460CB12046EAE709A901A800F01B
:104DF000BBFC60B99DF844009DF84810884201DD75
:104E00000220DDE79DF85000124988750AE09DF800
:104E10005000401CC0B214900E48007D9DF8501008
:104E20008842D2DC00BF0B48007D9DF850108842BC
:104E300001D10420C4E714A9284600F0D7FA04469B
:104E40000CB12046BCE79DF850000249487500208F
:104E5000B6E70000940000202DE9F0419AB09C488C
:104E6000847D007DA04202DC1AB0BDE8F081984943
:104E7000096801EBC40106AB07AA486808A900F05D
:104E8000D5F908A993A0FBF779FA002644E09048E9
:104E9000008B0121B1400840D8B122218FA0FBF73F
:104EA0006DFA304600F028FB89492431471839460D
:104EB0008BA0FBF763FA222188A0FBF75FFA30464C
:104EC00000F01AFB82492431084410A941F8260059
:104ED00018E0304600F010FB7D492431085810A935
:104EE00041F826007A48C07D30B910A850F8261045
:104EF0007CA0FBF743FA05E010A850F826107AA032
:104F0000FBF73CFA9DF81C00401EB04202D078A08E
:104F1000FBF734FA701CC6B29DF81C008642B6DB63
:104F200074A0FBF72BFA00F039FB6948407D0B2891
:104F30000DD2DFE800F0060D151E27323F4E5F72DE
:104F400087006349096851F834008047054690E0BE
:104F50005F4A126852F8341010988847054688E076
:104F60005B4B1B6853F83420DDE910019047054680
:104F70007FE0574F3F6857F8343010A807C898476C
:104F8000054676E0DFF848C1DCF800C05CF8347014
:104F900010A80FC8B84705466BE01498DFF830C179
:104FA0000090DCF800C05CF8347010A80FC8B84757
:104FB00005465EE0DDE91401DFF814C1CDE900012A
:104FC000DCF800C05CF8347010A80FC8B84705467C
:104FD0004FE0DDE914121698DFF8F4C0CDE90012B5
:104FE0000290DCF800C05CF8347010A80FC8B84715
:104FF00005463EE0DDE91423DDE91610DFF8D0C0F8
:10500000CDE90023CDE90210DCF800C05CF8347073
:1050100010A80FC8B84705462BE0DDE91523DDE9E8
:105020001710CDE90123CDE903101498DFF8A0C0D3
:105030000090DCF800C05CF8347010A80FC8B847C6
:10504000054616E0DDE91623DDE91810CDE9022357
:10505000CDE90410DDE91401DFF874C0CDE90001E9
:10506000DCF800C05CF8347010A80FC8B8470546DB
:1050700000BF00BF00F050FA9DF8180001280CD1C5
:105080001348C07D20B929461BA0FBF777F907E03C
:1050900029461BA0FBF772F902E018A0FBF76EF996
:1050A0000B4890F8EC0088B10948D0F8F0000A21CC
:1050B000B0FBF1F201FB12070548D0F8F000B0FB9D
:1050C000F1F83A46414611A0FBF758F900BFCBE68C
:1050D000940000200D0A25732800000025630000BD
:1050E00025730000256C750030582558000000001D
:1050F0002C000000290000003D256C753B0D0A00C6
:105100003D305825583B0D0A0000000046756E637F
:1051100074696F6E2052756E2054696D653A25640E
:105120002E2531646D730D0A00000000F0B50346B2
:105130001546002000220026002455E01F782C2F61
:1051400001D104B901221F78292F01D01F780FB98E
:1051500004B94AE0002E34D11F78302F02DB1F78CB
:10516000392F11DD1F78612F02DB1F78662F0BDDD1
:105170001F78412F02DB1F78462F05DD1F78582F3F
:1051800002D01F78782F0CD102B12EE01F78612F4A
:1051900003DB1F78203F0F7001E01F780F70491C60
:1051A0001FE01F78222F04D102B11EE00126012446
:1051B00017E01F78202F14D01F782C2F11D0FF2636
:1051C00013E01F78222F00D1002402B10DE044B17A
:1051D0001F785C2F02D15B1C471CF8B21F780F7040
:1051E000491C471CF8B25B1CA8E700BF00270F70E2
:1051F0002E70F0BD10B50446002010700BE0207832
:105200000870641C491C1078401C1070107898427B
:1052100001DB012010BD2078202802D02078002852
:10522000EDD10020087000BFF4E700002DE9FF4F2A
:1052300085B0804689460027002004900390012015
:1052400002904FF0000B002544461DE020782028F6
:1052500016D005F07F00052812DA0DB945F080055B
:1052600005F07F00042803D120782A2800D00EE022
:10527000207805F07F010DF80100681CC5B202E03E
:10528000852D00D103E0641C20780028DED100BF0A
:105290008DB1002005F07F010DF8010051A1684695
:1052A00000F062FA18B900210898017002E00121AB
:1052B0000898017000254FF0000A444614E0641C71
:1052C0000AF1010000F0FF0A2078202802D020789F
:1052D0002A2809D1204600F0D7F90646282E03D007
:1052E0002A2E01D0CDF810A02078282802D02078CE
:1052F0000028E4D14446049810B10498401C0444AA
:105300004FF0000A002654E0207810B94FF0010A4F
:1053100050E02078282803D116B9781CC7B213E0D2
:105320002078292808D13EB917B1781EC7B201E00C
:105330004FF0010A47B93DE02078222804D10EB988
:10534000012000E00020064647B9207820282FD011
:10535000207889F8000009F1010929E020782C283B
:1053600004D101200290681CC5B214E020782028E6
:1053700011D0207828280ED04DB9BBF1050F06DAE0
:1053800020780DF80B000BF1010000F0FF0B0298E4
:10539000401CC0B20290012F0AD10298022807D106
:1053A0000298401CC0B202900398401CC0B2039007
:1053B000641CA9E700BF0398012809D100200DF85B
:1053C0000B0008A1684600F0CFF908B9002003904F
:1053D000079903980870002089F80000504609B02A
:1053E000BDE8F08F766F6964000000002DE9F0439E
:1053F000B5B005460F460024002604E000213D48D4
:105400008155701CC6B20A2EF8DB06E06D1C2878A8
:1054100018B9012035B0BDE8F08328782828F5D1E7
:105420006D1C61E034AA69462846FFF77FFE0646F8
:1054300035449DF8D00020B1012827D0FF284CD159
:1054400049E09DF8000000B333A9684600F027F951
:1054500006460EB10220DDE7204600F04DF8254952
:105460000A31339A0A50A1F12400008B0121A14096
:10547000884320491A39088304211E480155601CBD
:10548000C4B20A2C01DD0320C4E726E0684600F020
:1054900087F9401C00F0FF08204600F02DF8154960
:1054A0000A3100EB01094946684600F06EF91148DF
:1054B0001A38018B0120A040014388B20D491A39E6
:1054C00008830C4800F80480601CC4B20A2C01DD7B
:1054D00003209FE701E002209CE700BF28782928ED
:1054E00001D0287800B900E09CE700BF3C700020A4
:1054F00090E70000AE00002002460020002105E0F9
:10550000044B5B5C0344D8B24B1CD9B29142F7DB2D
:1055100070470000AE00002010B501210D48FEF7D5
:105520004FFC012808D10C48D0F8F0004FF6FF716D
:1055300008440949C1F8F0000648FEF73EFC064958
:10554000D1F8F01008440449C1F8F0000846D0F83A
:10555000F00010BD000800409400002010B5044683
:1055600004EBC40000EB04100122C2EB800081B206
:105570004FF47A70FEF796FC01200149C87510BD02
:105580009400002010B50246012000E050430B00BB
:10559000A1F10104E1B2F9D110BD000010B5012163
:1055A0000848FEF7F5FB4FF6FF710648FEF734FC9E
:1055B00000210448FEF732FC00200349C1F8F00046
:1055C00010BD0000000800409400002070B51D4888
:1055D000008800F40040002833D01A4805780020E5
:1055E00019494855194881681748884704461CB925
:1055F0001649C868804721E0134800F0DDF80546E9
:10560000012D00D02C46CCB1012C06D0022C08D0A4
:10561000032C0AD0042C10D10BE00DA0FAF7AEFE3B
:105620000BE00EA0FAF7AAFE07E00FA0FAF7A6FE1D
:1056300003E010A0FAF7A2FE00BF00BF002001495E
:10564000088070BD2000002030020020940000205F
:10565000BAAFCAFDB4EDCEF3210D0A00B2CECAFD39
:10566000B4EDCEF3210D0A00B2CECAFDCCABB6E04C
:10567000210D0A00CEB4D5D2B5BDC6A5C5E4B5C4CA
:10568000BAAFCAFD210D0A000146491C00E0491CC1
:105690000878202801D10029F9D1087870472DE930
:1056A000F04307460E4600254FF00A083C4600200E
:1056B00030601FE02078392802DC207830280ADAB0
:1056C0002078462802DC2078412804DA20785828FF
:1056D00009D1012D07D12078412801DB4FF01008B6
:1056E000681CC5B205E0207800B904E00120BDE8DF
:1056F000F083641CDEE700BF3C46B8F1100F0FD109
:10570000032D01DA0220F2E72078302806D16078F4
:10571000582803D1A41CA81EC5B204E00320E6E764
:105720000DB90420E3E71BE00DB1681EC5B2207877
:10573000392806DC2078302803DB2078A0F13009F6
:1057400002E02078A0F1370929464046FFF71AFF0A
:10575000316809FB00103060641C207800B900E05B
:10576000E2E700BF0020C2E702460AE010780B78AB
:10577000984201D001207047107800B902E0521C15
:10578000491CF3E700BF0020F5E706E002780A7045
:10579000027802B902E0401C491CF7E700BF7047DD
:1057A0000146002005E00A7802B903E0421CD0B2AD
:1057B000491CF8E700BF704710B58CB004461E23A3
:1057C0000BAA03A92046FFF715FD0090009810B121
:1057D00001200CB010BD9DF82C00044400200B905B
:1057E0000EE040489DF82C2050F8221003A8FFF747
:1057F000BBFF00B908E09DF82C00401CC0B20B9024
:105800009DF82C000728ECD300BF9DF82C0007283A
:1058100063D2DFE800F004053C5E6564630000BF0E
:1058200031A0FAF7ABFD31A0FAF7A8FD3FA0FAF7D7
:10583000A5FD4EA0FAF7A2FD5CA0FAF79FFD6BA0B4
:10584000FAF79CFD79A0FAF799FD86A0FAF796FD84
:105850008BA0FAF793FD90A0FAF790FD94A0FAF7C9
:105860008DFD99A0FAF78AFD9EA0FAF787FDA4A006
:10587000FAF784FDB0A0FAF781FDBDA0FAF77EFD2E
:10588000C8A0FAF77BFDD4A0FAF778FD9AE216A03B
:10589000FAF774FDE0A0FAF771FD00200B900EE01E
:1058A000ED4800689DF82C2000EBC2004168EBA099
:1058B000FAF764FD9DF82C00401CC0B20B90E6483E
:1058C000007D9DF82C108842EADC07A0FAF756FD0F
:1058D00078E205A0FAF752FDC4E171E245E219E26F
:1058E000ECE10000480000200D0A00002D2D2D2DB8
:1058F0002D2D2D2D2D2D2D2D2D2D2D2D2D2D2D2DD8
:105900002D2D2D2D55534D4152542056332E312DD2
:105910002D2D2D2D2D2D2D2D2D2D2D2D2D2D2D2DB7
:105920002D2D2D2D2D2D2D200D0A00002020202085
:1059300055534D415254CAC7D3C9414C49454E54A1
:10594000454BBFAAB7A2B5C4D2BBB8F6C1E9C7C917
:10595000B5C4B4AEBFDAB5F7CAD4BBA5BDBBD7E9F1
:10596000BCFE2CCDA8B9FD200D0A0000CBFC2CC438
:10597000E3BFC9D2D4CDA8B9FDB4AEBFDAD6FACA56
:10598000D6B5F7D3C3B3CCD0F2C0EFC3E6B5C4C825
:10599000CEBACEBAAFCAFD2CB2A2D6B4D0D02ED2D7
:1059A000F2B4CB2CC4E3BFC90D0A0000D2D4CBE6BD
:1059B000D2E2B8FCB8C4BAAFCAFDB5C4CAE4C8EBF9
:1059C000B2CECAFD28D6A7B3D6CAFDD7D628313065
:1059D0002F3136BDF8D6C629A1A2D7D6B7FBB4AEB3
:1059E000A1A2BAAFCAFDC8EB0D0A0000BFDAB5D854
:1059F000D6B7B5C8D7F7CEAAB2CECAFD292CB5A561
:105A0000B8F6BAAFCAFDD7EEB6E0D6A7B3D63130F6
:105A1000B8F6CAE4C8EBB2CECAFD2CB2A2D6A7B380
:105A2000D6BAAFCAFDB7B5200D0A0000BBD8D6B5AF
:105A3000CFD4CABE2ED0C2D4F6B2CECAFDCFD4CAFD
:105A4000BEBDF8D6C6C9E8D6C3B9A6C4DC2CD0C240
:105A5000D4F6BDF8D6C6D7AABBBBB9A6C4DC2E0DFA
:105A60000A000000BCBCCAF5D6A7B3D63A77777750
:105A70002E6F70656E6564762E636F6D0D0A000083
:105A800055534D415254D3D037B8F6CFB5CDB3C3EB
:105A9000FCC1EE3A0D0A00003F3A202020202020D1
:105AA000BBF1C8A1B0EFD6FAD0C5CFA20D0A000055
:105AB00068656C703A202020BBF1C8A1B0EFD6FA1F
:105AC000D0C5CFA20D0A00006C6973743A20202063
:105AD000BFC9D3C3B5C4BAAFCAFDC1D0B1ED0D0AB9
