:020000040800F2
:10000000E0B8012015030008992600084D230008D8
:10001000952600086F1C00088F3D000800000000B6
:10002000000000000000000000000000D5330008C0
:10003000731C000800000000F92D0008B13500080D
:100040002F0300082F0300082F0300082F030008C8
:100050002F0300082F030008751C00082F03000859
:10006000A91C0008E11C0008191D00082F03000846
:100070002F0300082F0300082F0300082F03000898
:100080002F0300082F0300082F0300082F03000888
:100090002F0300082F0300082F030008351D000858
:1000A0002F0300082F0300082F0300082F03000868
:1000B0002F0300081D360008393600082F030008FA
:1000C0002F0300082F0300082F0300082F03000848
:1000D0002F03000881390008093A0008793A00081E
:1000E0002F0300082F0300082F0300082F03000828
:1000F0002F0300082F0300082F0300082F03000818
:100100002F0300082F030008713600082F03000892
:100110002F0300082F0300082F0300088D37000865
:100120002F0300082F0300082F0300082F030008E7
:100130002F0300082F0300082F0300082F030008D7
:100140002F0300082F0300082F0300082F030008C7
:100150002F0300082F0300082F0300082F030008B7
:100160002F0300082F0300082F0300082F030008A7
:100170002F0300082F0300082F0300082F03000897
:100180002F0300082F03000800F002F800F0B2F877
:100190000AA090E8000C82448344AAF10107DA45E2
:1001A00001D100F0A7F8AFF2090EBAE80F0013F082
:1001B000010F18BFFB1A43F0010318471465000034
:1001C000346500000A444FF0000C10F8013B13F0B6
:1001D000070408BF10F8014B1D1108BF10F8015BA0
:1001E000641E05D010F8016B641E01F8016BF9D193
:1001F00013F0080F1EBF10F8014BAD1C0C1B09D1EA
:100200006D1E58BF01F801CBFAD505E014F8016B5B
:1002100001F8016B6D1EF9D59142D6D370470000ED
:100220000023002400250026103A28BF78C1FBD8FF
:10023000520728BF30C148BF0B6070476E2900F0DD
:10024000F982702900F08781662905F0E683652927
:1002500005F0E383672905F0E083612905F0DF837A
:1002600003681B0A28BF41F08001692900F0F8806B
:10027000642900F0F580752900F0F2806F2900F004
:10028000F183782900F05381E92900F08B83E42978
:1002900000F08883F52900F08583EF2900F0EE83D4
:1002A000F82900F052810368DB0928BF41F0800182
:1002B000632900F0FA82732900F0FF82E32900F03D
:1002C000C187F32900F0C687002070471FB505F0ED
:1002D0009FFB01F015F804000020002105F082FBCF
:1002E000401C60600020002105F066FBE0601FBD3F
:1002F00010B510BD00F0D6FF1146FFF7E7FF03F081
:10030000D9FE01F0AFF803B4FFF7F2FF03BC03F02E
:10031000B8FD00000948804709480047FEE7FEE7AE
:10032000FEE7FEE7FEE7FEE7FEE7FEE7FEE7FEE7A5
:1003300004480549054A064B70470000B5350008DA
:1003400089010008E0B20120E0B80120E0B40120FA
:10035000E0B40120704700001CB50C46064B7B44FE
:1003600069460090204600F07EFA04460020694667
:1003700000F08CFA20461CBD2B0500000FB4044988
:1003800010B503AA029800F09DFA10BC5DF814FBAA
:10039000540000200FB41CB5084B06AA7B446946E4
:1003A0000090059800F05FFA04460020694600F0CE
:1003B0006DFA20461CBC5DF814FB0000ED04000043
:1003C00070B5044685690068C10601D5302600E095
:1003D0002026C00707D070BDD4E9012130469047E0
:1003E000206A401C20626D1EF6D570BD70B50446B3
:1003F00085690078C00707D170BDD4E901212020AC
:100400009047206A401C20626D1EF6D570BD70B505
:100410000C460546012A05D02878800600D5EA69F1
:10042000002302E0012305E05B1C934202D2E05C62
:100430000028F9D1A869E618C01AA861286A1844EA
:1004400028622846FFF7BCFF04E0D5E9012114F833
:10045000010B9047B442F8D32846FFF7C7FF70BDA1
:100460002DE9F0410646002410687529314616A58D
:1004700010D000F074F9002802DA404213A507E01A
:1004800031688A0701D512A502E0490704D511A5F4
:10049000012401E000F06CF900210A2206F1240792
:1004A00009E0B0FBF2FCB0FBF2F302FB1C003030C1
:1004B00078541846491C0028F3D123462A46304672
:1004C000BDE8F04100F05DB9000000002D00000023
:1004D0002B00000020000000F0B40D460188090543
:1004E00002D5214C7C4402E01F4C7C440E34002198
:1004F00000F1240608E002F00F071209E75D42EA66
:1005000003721B097754491C52EA0307F3D102789E
:100510000023120704D5702D06D009B1022311342F
:100520002246F0BC00F02DB901231034F8E770B575
:1005300004460D462146106800F01AF90246294685
:100540002046BDE870400023C6E7D21D22F0070315
:10055000D3E90023C0E70368126843F02003036077
:100560000823C3610023B7E7C85E00002DE9F05FF0
:10057000894604464FF0000ADFF874B1FB44C0F826
:1005800020A02046E1688847002874D0252806D09E
:10059000D4E901219047206A401C2062F1E700263F
:1005A0005F462046E16888472028054607DB312D55
:1005B00005D2781910F8200C08B10643F1E7B0070E
:1005C00001D526F00406C4F81CA00027C4F818A022
:1005D0002A2D09D0284603F04DFC38B304EB8708D8
:1005E000303DC8F8185019E059F8041B204604EBB8
:1005F00087029161E1688847012F054618D1E069BB
:10060000002820DA26F020061DE0D8F8180000EBBC
:10061000800005EB40003038C8F818002046E1683B
:100620008847054603F026FC0028EED1012F0AD0AA
:100630002E2D08D12046E16888477F1C0546022FF1
:1006400046F02006C4DBA069002803DA404246F0E9
:100650000106A061F00701D026F010066C2D0BD02A
:10066000682D09D04C2D39D06A2D35D0742D35D058
:100670007A2D33D016E038E0E1682F4620468847CF
:10068000B842054609D16C2F26D04FF48060E1684E
:10069000064320468847054604E06C2F1AD04FF4E5
:1006A000807006430DB3A5F14100192802D820350A
:1006B00046F400664A462946204626604E46FFF725
:1006C000BDFD80B101280BD0F61D26F0070000F11A
:1006D000080956E74020E4E78020D8E70020D6E765
:1006E00006F104094DE7284652E7206ABDE8F09F6D
:1006F000585E000030B505460B462A4613F8014BFC
:1007000012F8010B08B1A042F8D01CB1002802D0A9
:100710006D1CF1E7284630BD10B5431C02E010F80F
:10072000011B71B18107FAD14FF0013202C88C1A56
:100730008C4314EAC211F9D0C01A0A0603D0C01EB5
:1007400010BDC01A10BD0A0401D0801E10BD0902E0
:10075000FCD0401E10BD7047704770477047096855
:100760004A0501D540B27047C905FCD500B27047B3
:1007700009684A0501D5C0B27047C905FCD580B2E9
:1007800070472DE9F0470D4699469246044600F120
:1007900024080168880604D5E06921F01001216071
:1007A00000E00120A84201DD471B00E00027A1690D
:1007B0007A1902EB0900081AA0612078C00602D459
:1007C0002046FFF7FDFD002608E0D4E901211AF8D4
:1007D00006009047206A401C761C20624E45F4DBE0
:1007E0002078C0060AD52046FFF7EAFD06E0D4E9E6
:1007F000012130209047206A401C2062381EA7F15A
:100800000107F4DC07E0D4E9012118F8050090475E
:10081000206A401C2062281EA5F10105F3DC204659
:10082000FFF7E4FD2078000602D50220BDE8F0873E
:100830000120FBE711680268006A530501D50870C2
:100840000AE0D30501D5088006E0130603D5C217D8
:10085000C1E9000200E008600120704701694A1CFC
:1008600002610878704700B58FB0CDE901310021F1
:10087000059105497944CDE9031011466846FFF713
:1008800075FE0FB000BD0000E5FFFFFF0A6802F82B
:10089000010B0A60704710B5436913B1AFF30080D4
:1008A00001E0FFF7B4FD012010BD127800F1240132
:1008B0000A7000224A700122EDE711684FF0FF3202
:1008C000E9E70000074B70B50D467B44FFF7CBFF0F
:1008D0000446284600F0C2FC10B14FF0FF3070BD56
:1008E000204670BDCB3700002DE9FF5F15468A46D4
:1008F0000446DFF8AC80F8440027D8E900103E46F3
:10090000CDE9001010E03AF816106A4602A800F08F
:10091000A9FC411C07D02178890603D5E269391862
:1009200091420DD80744761C2078800602D5E069F4
:10093000B84205DDAE42E6DB3AF816000028E2D107
:10094000A069C01BA0612046FFF73AFDD8E900105E
:10095000CDE90010002017E03AF818106A4602A806
:1009600000F080FCB0F1FF3F81460BD000250DF177
:10097000080B05E0D4E901211BF8050090476D1C28
:100980004D45F7D308F10100B0428046E4DB206A10
:10099000384420622046FFF729FDBDE8FF9F000094
:1009A000F25A00002DE9F0418046D21D22F00702E4
:1009B0000025D2E90002F52915A614D0011E72F116
:1009C000000106DA0023D0EB030063EB020211A65C
:1009D00008E0D8F800108B0701D50FA602E0490700
:1009E00001D50EA601251146002408F1240704E0D4
:1009F00000F04EF830323A55641C50EA0102F7D14B
:100A00002B46324621464046BDE8F041FFF7B9BECD
:100A1000000000002D0000002B000000200000005E
:100A200030B4002100F1240408E002F00705D208E8
:100A3000303542EA4372DB086554491C52EA03052B
:100A4000F3D10468002310A2250708D504F0200480
:100A50000C4304D0C46901230CA2641EC46130BCE1
:100A6000FFF78FBE10B5044621461068FFF780FEE1
:100A700002462046BDE810400023D1E7D21D22F0F7
:100A80000701D1E90023CBE700000000300000009F
:100A900030B5B0F10A024FEA900E71F100034EEA50
:100AA000817EB0EB0E0061EB91014FEA101E4EEA21
:100AB000017E10EB0E0041EB11114FEA102E4EEAB1
:100AC000016E10EB0E0041EB11214FEA104E4EEA81
:100AD000014E10EB0E0041EB1141401841F10001B5
:100AE0004FEAD00040EA41704FEAD10110EB800597
:100AF0004FEA810444EA907444EB01046D1944EB1D
:100B00000404521BA3414FF0000348BF0A3200D532
:100B100030BD401C41F1000130BD70472DE9FF4F51
:100B20000C461E464FF0FF378BB0D2E90001DDF8CE
:100B300060800A908A46C1F30A5505B93D460021F6
:100B400008464FF00000BAF1000F00F4400005DA4B
:100B500000EB80004FF4400101EA50004FEA905949
:100B6000B9F1010F00DDB9460A9850EA4A000ED0EB
:100B700044F61050A5F2FF3545432F14B8F1000F8D
:100B80001ED07542291E1EDDC9F100021CE0B8F11D
:100B9000010F4FF0000001D0302103E0F24305E0E7
:100BA0002154401CB042FBDB30460022002121547E
:100BB0000B99C1F80880C1E900200FB0BDE8F08FA3
:100BC000BD1B6D1CDEE74A4600DA694206A800F04C
:100BD000DBFB06AB93E8070003AB83E80700504656
:100BE0000A9900F089FC8DE80700A0F500501F3835
:100BF00000900398002D09DD42F21F014A46084487
:100C000003A90390684600F0E8FE08E0A0F5005054
:100C10004A461F3803A90390684600F0F2FE8DE8AB
:100C200007000004000C03D04FF0FF30410800E043
:100C30001046B8F1000F03D00022009215461EE0C6
:100C4000751E05D4FFF724FF303262556D1EF9D5AD
:100C5000B3460122084302D000227F1C04E0207822
:100C6000302801D100227F1E002A099786D01DE07E
:100C7000112D07DAFFF70CFF303262556D1C50EA78
:100C80000102F5D1084302D00098C8B10EE000215E
:100C9000681E05E0235C625C63542254401E491CBC
:100CA0008142F7DBAB46A81B401E0990002004F8E8
:100CB0000B000B98099AC0F80880C0E9002B7CE76C
:100CC00011264FF0000859E72DE9F04F88460446F9
:100CD000D21D22F0070191B0D1E90001CDE90A014E
:100CE00003F0B0F802460B98C00F01D02D2007E0AA
:100CF0002068810701D52B2002E0202101EAC000F5
:100D0000032A099001D0072A05DB03464146204605
:100D100000F0FAFA0BE12078800601D5E06900E0E6
:100D20000620B8F1650F814606D0B8F1660F18D0DD
:100D3000B8F1670F70D131E00020B9F1110F0090C8
:100D400001DB112301E009F101030AAA01A90CA8A2
:100D5000FFF7E4FEDDE90C70002609F1010583468A
:100D600047E001204B4600904FF000470AAA01A936
:100D70000CA8FFF7D3FEDDE90DB00C995D46002607
:100D800010B909F101000D18B9EB050003D4C0F149
:100D9000FF3609F10105A5EB09002BE0B9F1010FC0
:100DA00001DA4FF001090020B9F1110F0090484617
:100DB00001DD112300E003460AAA01A90CA8FFF7F0
:100DC000ADFEDDE90C704D46002683462078000715
:100DD0000AD4AB4500DA5D4601A8012D04DD4119B6
:100DE00011F8011C302907D04F4502DA17F1040F22
:100DF00004DA012082460FE06D1EEEE7002F02DCD0
:100E0000ED1B3E4403E0781CA84200DD7D1CB81BAE
:100E100000F1010A4FF000472078000703D4AA45EB
:100E200001DB4FF0FF3A0021B7F1004F0DF143080D
:100E30008DF8431024D002202B23002F01DA7F42AB
:100E40002D230A21021EA0F1010000DC5FB197FBF7
:100E5000F1FC97FBF1F201FB1C7C17460CF1300C06
:100E600008F801CDEEE7A8F101000370218809051B
:100E700001D5452100E06521A0F1010800F8011C21
:100E800009980FA9A1EB0807FF1D00B10120411926
:100E900001EBEA70A1693844081A401EA06120786D
:100EA000C00602D42046FFF78BFA099828B1D4E98E
:100EB00001219047206A401C20622078C00622D57C
:100EC0002046FFF77DFA1EE0002E04DBB34502DD6D
:100ED00001A8805D00E03020D4E901219047206A1C
:100EE000401C2062761CAAF101005FEA000A0AD1C8
:100EF00000F006FAC0680168405CD4E9012190471F
:100F0000206A401C2062281EA5F10105DCDC07E0F8
:100F1000D4E9012118F8010B9047206A401C206297
:100F2000381EA7F10107F3DC2046FFF75FFA032024
:100F300011B043E62DE9F04F04460D46D21D22F0D4
:100F4000070089B0D0E9009248461746394602F0BA
:100F500079FF0246F80F01D02D2307E020688107B2
:100F600001D52B2302E0202101EAC0038DF82030B7
:100F70000BB1012000E00020032A824601D0072A9D
:100F800004DB2946204600F0BFF93DE120788006C9
:100F900001D40D2500E0E569C7F30A560D2D49DAA5
:100FA00000214FEA175B08464FF00000002F00F4C5
:100FB000400007DA00EB80004FF4400100EBD070F6
:100FC00001EA60008115012901DD4FF0FF310022A7
:100FD0004FEA850CBCF1180F06D31346ACF118008C
:100FE0004FF08052C24003E04FF4801323FA0CF319
:100FF0000CF10C0CBCF1200F04D3ACF1200C09FA5D
:101000000CF001E007FA0CF000294FF0004801DD78
:1010100018B90FE00ED140450CD319EB02095F411E
:1010200021B9404502D19F4329EA0209BBEB175F72
:1010300000D0761C2088000502D57B48784402E069
:1010400079487844193808AA302302F80A30037C1A
:101050000AF10101002E0AF1020A53546A4602DC29
:101060004FF0300101E04FF031014FF001088DF8F1
:10107000001002D0A6F2FF3603E059EA470100D083
:101080006A4E002D02DC2178090704D54FF00208D2
:101090002E218DF80110C44600210BE0C7F3034355
:1010A0003F01C35C491C6D1E02F80830052908F198
:1010B000010801DA002DF1DC00210CE000EB1973CE
:1010C000491C1B786D1E082902F808304FEA0919DF
:1010D00008F1010801DA002DF0DC2178890602D53B
:1010E00014E0A8F10108E04505DD02EB080111F864
:1010F000011C3029F5D0B8F1000F07DD02EB080123
:1011000011F8011C2E2901D1A8F10108002D05DDDF
:101110003E2102F808106D1E08F10108407C002EE7
:1011200002F8080008F1010804DA2D20764202F8DE
:10113000080002E02B2002F808000A214FF47A7020
:10114000864208F101080BDB96FBF0F3303302F81E
:10115000083096FBF0F308F1010800FB136601E08C
:10116000642E0CDB642096FBF0F3303302F8083079
:1011700096FBF0F308F1010800FB136601E00A2E6C
:1011800006DB96FBF1F0303002F8080008F10108A8
:1011900096FBF1F001FB1060303002F80800A16905
:1011A00008F1010808EB050202EB0A00081AA06129
:1011B0002078C00602D42046FFF702F9216A08AE63
:1011C00001EB0A00206204E0D4E9012116F8010BCA
:1011D0009047BAF1010AF7D22078C00602D520461E
:1011E000FFF7EEF86E4609E016F8010B3E280FD027
:1011F000D4E901219047206A401C2062B8F101081F
:10120000F2D22046FFF7F2F809B00320BDE8F08FD4
:10121000206A2844206203E0D4E90121302090476D
:101220006D1EEBD3F8E70000C753000002FCFFFF80
:1012300010B5436913B1AFF3008001E0FFF754FB31
:10124000012010BD128800F1240182840022C28492
:101250000122EDE711684FF0FF32E9E7007B00F073
:101260008000704770B516460C46054600F040F801
:10127000036893F80101012806D0FF2C0FD8185DF0
:1012800068B101202C7070BDD3F8070132462146A9
:1012900003F2071303442846BDE8704018474FF097
:1012A000FF3070BD754600F0E3F8AE4605006946B4
:1012B000534620F00700854618B020B5FFF738F8F0
:1012C000BDE820404FF000064FF000074FF0000847
:1012D0004FF0000B21F00701AC46ACE8C009ACE8C8
:1012E000C009ACE8C009ACE8C0098D4670470000F1
:1012F00010B500F005F8001D10BD00BFE946000064
:1013000000487047A0B201202DE9F0411F46044675
:1013100003260168072A01F4006004DB08B116A562
:1013200005E016A503E008B115A500E015A521F01C
:1013300010002060A069C01EA0610FB1401EA06116
:101340002046FFF73DF84FB1D4E9012138469047D8
:10135000206A401C2062C01C206206E0206AFAE776
:10136000D4E9012115F8010B9047761EF8D22046EA
:10137000FFF73CF8BDE8F0814E414E006E616E0013
:10138000494E4600696E66002DE9F04781461646D3
:101390008AB0334878440DC88DE80D003048784451
:1013A000801C03AC0DC884E80D0041F69B30084456
:1013B000372190FBF1F290FBF1F5A5F1800501FBDF
:1013C00012041B3C02D56442012000E00020DFF83B
:1013D00090A080460027FA44AAF1BE0A0DE0E0077B
:1013E00009D03246684607EB47010AEB810100F05D
:1013F00008FB8DE8070064107F1C002CEFD1184F0C
:101400007F44AC3F18E0E80714D007EB04100DF15F
:10141000180A90E80E008AE80E00C068F04201D178
:1014200098190890324606A903A800F0EAFA03AB1F
:1014300083E807006D10641C002DE4D13246694634
:10144000B8F1000F03A802D000F0C7FA01E000F0E5
:10145000D8FAC9E90001C9F808200AB0BDE8F08748
:10146000005100000446AFF300802046FEF74BFF1A
:101470000048704780B201204FF0013C50F8042B27
:1014800051F8043B9A4221D1A2EB0C03934313EA97
:10149000CC1317D150F8042B51F8043B9A4215D1C4
:1014A000A2EB0C03934313EACC130BD150F8042B9B
:1014B00051F8043B9A4209D1A2EB0C03934313EA7F
:1014C000CC13DBD04FF00000704700BFD01A01BA38
:1014D000B1FA81F101F0180122FA01F0CB40C1F11B
:1014E0002001DBB2C0B2C01A2CFA01F3D11A914329
:1014F00011EAC311E6D170475FEA400C08BF91F0D2
:10150000000F4FEA8C234FEAC12243EA51514FEAC0
:101510001C5018BF00F5F0404FEA300018BF41F0F2
:1015200000415FEA6C5C00F02980BCF1FF3F08BF1E
:1015300040F080407047130C06BF12044FF0100CAF
:101540004FF0000C130E04BF12020CF1080C130F25
:1015500004BF12010CF1040C930F04BF92000CF1B4
:10156000020CD30F04BF52000CF1010C11464FF0D6
:101570000002A0F11F00A0EB0C00704711F0004F1B
:1015800008BF704731F000413FF4D5AF0B0C06BFE8
:1015900009044FF0100C4FF0000C0B0E04BF0902B1
:1015A0000CF1080C0B0F04BF09010CF1040C8B0F9C
:1015B00004BF89000CF1020CCB0F04BF49000CF1F1
:1015C000010CCCF12003A0EB0C0022FA03F302FA89
:1015D0000CF241EA030100F10100704720F07F4C5A
:1015E00080EA030023F07F47ACEB070303F57C534D
:1015F00000F0004003F1FF032DE980494FEA154B4D
:1016000009B44FEA144325EA0B4E24EA03480FF2CB
:10161000042606EB132749083E785FEA320203FBF3
:101620000667C7F5000707FB06F64FEA54374FEA8F
:10163000D64606F1020607FB066CCCF1005C4FEAC9
:101640001C472CEA074C07FB06F40CFB06F504EBE1
:1016500015464FEA961634BF00204FF000404FEA7F
:10166000D13706FB07FC4FEA1C4C0CFB0BF7D21BD7
:1016700003FB0CF761EB07010CFB0EF7B0EB074027
:1016800072EB17420CFB08F734BFA2EB0742B2EB38
:10169000074261EB17414FEA0C444FEA910706FB02
:1016A00007FC4FEA1C4C0CFB0BF7B0EBC74072EB8E
:1016B000573203FB0CF734BFA2EBC742B2EBC74271
:1016C00061EB57310CFB0EF7B0EBC70072EB5772B2
:1016D0000CFB08F734BFA2EBC702B2EBC70261EB09
:1016E0005771039F4FEA816141EA921104EBCC04E8
:1016F0004FEAD1374FEA826206FB07FC42EA9012BA
:101700004FEA80604FEA1C4C0CFB0BF7D21B03FB2B
:101710000CF761EB07010CFB0EF7B0EB074072EB27
:1017200017420CFB08F734BFA2EB0742B2EB0742AB
:1017300061EB17414FEA8C554FEA910704EB9C246B
:1017400006FB07FC4FEA1C4C0CFB0BF7B0EBC74049
:1017500072EB573203FB0CF734BFA2EBC742B2EB7C
:10176000C74261EB57310CFB0EF7B0EBC70072EBD1
:1017700057720CFB08F734BFA2EBC702B2EBC702EB
:1017800061EB577115EB4C254FEA816141EA9211EB
:101790004FEA82624FEAD13742EA901206FB07FC19
:1017A00044F100044FEA80604FEA1C4C0CFB0BF73D
:1017B000D21B03FB0CF761EB07010CFB0EF7B0EB40
:1017C000074072EB17420CFB08F734BFA2EB07424D
:1017D000B2EB074261EB174115EB1C154FEA813163
:1017E00041EA92414FEA823242EA90424FEA803027
:1017F0004FEA0C7644F1000448EA03434EEA0B48F2
:101800004FF0000EB2EB080C71EB030724BF6246E9
:1018100039464EEB0E0E4FF0000B00185241494175
:101820004BEB0B0BB2EB080C71EB03077BF1000BDE
:1018300024BF624639464EEB0E0E4FF0000B0018E7
:10184000524149414BEB0B0BB2EB080C71EB030718
:101850007BF1000B24BF624639464EEB0E0E51EA77
:10186000020718BF46F0010616EB0E7655F100028E
:1018700054F1000103D5BDE88901BDE80088BDE849
:101880008901BDE80048B619524141EB0101A3F1BD
:101890000103704780807F7E7D7C7B7A79787776C4
:1018A00076757473727171706F6E6E6D6C6C6B6A3D
:1018B0006A696868676666656464636362616160DB
:1018C000605F5F5E5E5D5D5C5C5B5B5A5A59595858
:1018D00058575756565555555454535352525251C2
:1018E000515050504F4F4F4E4E4D4D4D4C4C4C4B18
:1018F0004B4B4A4A4A49494948484847474747465F
:10190000464645454544444444434343434242429A
:1019100042414141002B26D4770021D01CB54FEA2B
:10192000370703B44FF010004FF010014FF00000E4
:101930000FBCBDE810400BF1010BBBF1010F08BF5C
:101940005FEA170722BF12F1010211F101014FF006
:10195000004143F1000300F0004043EA00007047FB
:10196000F9D35708DAE746EA064613F1400F4FEA83
:1019700016461FDD13F1200FDFBF16430A46002174
:1019800020335B42C8D0C3F1200746EA064602FA7C
:1019900007F74FEA164646EA0706C3F1200722FA80
:1019A00003F201FA07F721FA03F14FF0000342EACC
:1019B0000702B1E746EA020646EA06464FEA16463D
:1019C00046EA0106BCBF46EA0646360C4FF0000365
:1019D0004FF000024FF000019EE72DE9C04893460A
:1019E00030B491E8380007C831EA400C48BF34EA07
:1019F000430C03D5FFF7F2FDFFF78CFFF0BCBDE809
:101A000000882DE9C048934630B491E8380007C8F3
:101A100010F0804F08BF13F0804F03D100F005F89D
:101A2000FFF778FFF0BCBDE8008820F07F4780EA30
:101A3000030023F07F4C07EB0C03A3F57C5300F06D
:101A40000040A3F1FE0392F0000F00F0B38095F088
:101A5000000F00F077802DE901494FEA11404FEA6D
:101A6000144621EA004800FB06FC24EA064708FB6E
:101A700006F607FB08F800FB07F718EB06484CEBE7
:101A8000164C4FEA124B18EB07484FEA15464CEB41
:101A9000174022EA0B4E0BFB06FC25EA06470EFB1D
:101AA00006F607FB0EFE0BFB07F71EEB064E4CEB94
:101AB000164C4FF000061EEB074E4CEB174B18EB85
:101AC0000B0840F1000018EB0E0B58EB000840F13A
:101AD00000008F1A4FF000013CBFC943661B14BFC2
:101AE000B5EB040C00213CBFC943F61B4FEA174479
:101AF0004EEA8E0E27EA04454FEA1C4704FB0762B4
:101B00002CEA074C05FB07F70CFB05F604FB0CFC65
:101B100016EB074642EB174216EB0C4642EB1C4213
:101B20001BEB060658EB0202414146EA9E0601D530
:101B3000BDE80189B619524141EB0101A3F101034E
:101B4000BDE801894FEA14454FEA114724EA0546EA
:101B500021EA074C05FB07F406FB07F70CFB06F12F
:101B600005FB0CFC11EB074144EB17444FEA12470D
:101B700011EB0C4144EB1C4422EA074C05FB07F235
:101B800006FB07F70CFB06F605FB0CFC16EB0746FD
:101B900042EB174216EB0C4642EB1C456A1854F117
:101BA000000148BF7047B619524141EB0101A3F152
:101BB0000103704795F0000F37D04FEA11424FEA0A
:101BC000144721EA024624EA074C02FB07F106FB10
:101BD00007F70CFB06F402FB0CFC14EB074441EB8B
:101BE00017414FEA154714EB0C4441EB1C4125EA21
:101BF000074C02FB07F506FB07F70CFB06F602FB9A
:101C00000CFC16EB074645EB174516EB0C4645EB6F
:101C10001C42121951F1000148BF7047B6195241D8
:101C200041EB0101A3F1010370474FEA14454FEA6C
:101C3000114724EA054621EA074C05FB07F106FB9C
:101C400007F70CFB06F24FF0000605FB0CFC12EB4D
:101C5000074241EB174112EB0C4251EB1C4148BFCC
:101C60007047921841EB0101A3F10103704700BFD7
:101C7000FEE7704710B50A2002F0A6F901210848D6
:101C800000F057FB012807D10648006808B9012079
:101C900000E0002003490860012000F095F810BD25
:101CA00000000240A082424210B5002008490860AE
:101CB00001200849C1F880020749C1F8900207488D
:101CC0000078401C05490870082000F07DF810BD20
:101CD0008002424200004242008040425602002000
:101CE00010B500200849086001200849C1F88002A9
:101CF0000749C1F8900207480078401C0549087060
:101D0000082000F061F810BD80024242000042420B
:101D1000008040425602002010B50A2002F054F91B
:101D20001021034800F005FB102000F04DF810BD15
:101D30000010024010B54FF4807000F04BF80128FD
:101D40000ED100200949086001200949C1F880022C
:101D50000849C1F8900208480078401C06490870FC
:101D60004FF4807000F030F810BD00008002424255
:101D70000000424200804042560200200EB5012180
:101D8000880301F06BF80321012001F025FB0820F6
:101D9000019000208DF8080008208DF8090001202E
:101DA0008DF80A0001A800F021F809208DF8000044
:101DB00002208DF8010001208DF802008DF803004B
:101DC000684600F06BFC0EBD0149086070470000DA
:101DD000143C014001460020034A12680A400AB13F
:101DE000012000E000207047143C014000212349FD
:101DF0008279002A3AD00A46126803689A430B4651
:101E00001A600A1D126803689A430B1D1A60027952
:101E100011440A6803681A430A60184A08321268B3
:101E200003689A43154B08331A601A1D1268036839
:101E30009A43124B0C331A604279102A0ED11A1FA2
:101E4000126803681A430D4B08331A601A1D126892
:101E500003681A43094B0C331A600DE007494279B5
:101E600011440A6803681A430A6005E002791144C4
:101E70000A6803689A430A6070470000003C01400A
:101E8000014621293ED2DFE801F011131517191B75
:101E90001D1F212325273D3D3D3D292B3D3D3D2D4A
:101EA0003D3D2F313335373D3D393B0017A02BE009
:101EB00017A029E01AA027E01EA025E022A023E019
:101EC00029A021E030A01FE036A01DE043A01BE0C8
:101ED00045A019E048A017E04BA000BF53A013E0B5
:101EE00056A011E059A00FE061A00DE064A00BE046
:101EF00066A009E069A007E06DA005E071A003E01D
:101F000073A001E075A000BF00BF70474F4B0000F9
:101F1000CAFDBEDDB0FCBDD3CAD5B4EDCEF3000022
:101F2000B4ABB8D0C6F7C9CFC3BBD3D0CAD6D6B826
:101F300000000000C2BCC8EBD6B8CEC6CDBCCFF105
:101F4000CAA7B0DC00000000D6B8CEC6CDBCCFF129
:101F5000CCABB8C9A1A2CCABB5ADB6F8C9FAB2BB8F
:101F6000B3C9CCD8D5F70000D6B8CEC6CDBCCFF11A
:101F7000CCABCAAAA1A2CCABBAFDB6F8C9FAB2BB27
:101F8000B3C9CCD8D5F70000D6B8CEC6CDBCCFF1FA
:101F9000CCABC2D2B6F8C9FAB2BBB3C9CCD8D5F76C
:101FA00000000000D6B8CEC6CDBCCFF1D5FDB3A39E
:101FB000A3ACB5ABCCD8D5F7B5E3CCABC9D9A3A806
:101FC000BBF2C3E6BBFDCCABD0A1A3A9B6F8C9FA5E
:101FD000B2BBB3C9CCD8D5F700000000D6B8CEC686
:101FE000B2BBC6A5C5E40000C3BBCBD1CBF7B5BD22
:101FF000D6B8CEC600000000CCD8D5F7BACFB2A272
:10200000CAA7B0DC00000000B7C3CECAD6B8CEC69F
:10201000BFE2CAB1B5D8D6B7D0F2BAC5B3ACB3F641
:10202000D6B8CEC6BFE2B7B6CEA70000C9BEB3FDD4
:10203000C4A3B0E5CAA7B0DC00000000C7E5BFD567
:10204000D6B8CEC6BFE2CAA7B0DC0000BBBAB3E5C3
:10205000C7F8C4DAC3BBD3D0D3D0D0A7D4ADCABCE1
:10206000CDBCB6F8C9FAB2BBB3C9CDBCCFF1000044
:10207000B6C1D0B420464C41534820B3F6B4ED006D
:10208000CEB4B6A8D2E5B4EDCEF30000CEDED0A734
:10209000BCC4B4E6C6F7BAC500000000BCC4B4E6D0
:1020A000C6F7C9E8B6A8C4DAC8DDB4EDCEF30000BF
:1020B000BCC7CAC2B1BED2B3C2EBD6B8B6A8B4EDE3
:1020C000CEF30000D6B8CEC6BFE2C2FA00000000D0
:1020D000B5D8D6B7B4EDCEF300000000C4A3BFE975
:1020E000B7B5BBD8C8B7C8CFC2EBD3D0CEF30000CA
:1020F00010B52021002002F073FA044632222DA1EF
:102100002DA001F0DBFE14222AA12EA001F0D6FEA4
:102110004FF47A7001F058FF4FF47A7001F054FFD9
:102120004FF47A7001F050FF4FF47A7001F04CFFD9
:102130004FF4967225A128A001F0C0FE4FF47A70EA
:1021400001F042FF01202C4908700846007800F099
:102150000100002829D000F0E7FA28A20021084653
:1021600000F008FC142213A129A001F0A7FE4FF4EF
:102170007A7001F029FF2948294A2AA103682046DC
:10218000FEF708F9C8220BA1204601F097FE4FF494
:102190007A7001F019FFC82206A129A001F08EFE75
:1021A000C82204A12AA001F089FE2146002002F0E5
:1021B00005FA10BD4F4B000041542B43574D4F447F
:1021C000453D310041542B52535400005749464974
:1021D00020474F542049500041542B43574A415007
:1021E0003D22414C414C41222C2257414E475449FB
:1021F000454A5522000000000200002041544B2DAA
:1022000045535020574946492D5354410000000082
:1022100041542B4349504D55583D3000DC010020BE
:102220000300002041542B43495053544152543D24
:1022300022544350222C222573222C2573000000A7
:1022400041542B4349504D4F44453D31000000005F
:1022500041542B43495053454E440000F0B50A46C3
:1022600000210023002400BF3DE0012505FA01F311
:10227000156805EA03049C4234D105684F00032623
:10228000BE40B543056015794E00B540066835433C
:1022900005601579012D02D01579022D16D18568BA
:1022A0004F000326BE40B543856055794E00B540CA
:1022B000866835438560456801268E40B543456094
:1022C000456896798E40B6B235434560C5684F0083
:1022D0000326BE40B543C560D5794E00B540C668FB
:1022E0003543C560491C1029BFD3F0BDF0B50023AC
:1022F00000244D07ED0E02FA05F3CE1000F1200583
:1023000055F826504E07F70E0F26BE40B543CF10A6
:1023100000F1200646F82750CE1000F1200555F8B0
:10232000265045EA0304CE1000F1200545F826406A
:10233000F0BD0246002013690B400BB1012000E004
:1023400000207047418370470183704700BFFEE75C
:102350007CB50546EF208DF8000001208DF80100C6
:102360001A480068000E8DF8020018480068000C3A
:102370008DF8030015480088000A8DF80400134802
:1023800000788DF8050007208DF8060000208DF8F4
:1023900007000F49088012E0012001F015FE0C48EB
:1023A000008800F4004050B10020094908806946C7
:1023B0000848FEF79FF904460CB120467CBD681E14
:1023C00080B20500E8D100BFF8E70000D00100208E
:1023D000D4010020D0AD01201CB50F2000900120B9
:1023E0008DF8040000208DF8060003208DF805000C
:1023F00069460948FFF732FFF020009002208DF86F
:10240000070000208DF8040003208DF805006946C0
:102410000148FFF723FF1CBD000C024010B50F2040
:102420006A490880102169481838FFF782FF04467E
:10243000202166481838FFF77CFF04434021634899
:102440001838FFF776FF0443802160481838FFF7FB
:1024500070FF0443002C76D0642001F0B5FD1021FC
:102460005A481838FFF765FF0446202157481838A6
:10247000FFF75FFF0443402154481838FFF759FF26
:102480000443802151481838FFF753FF0443002CC0
:10249000E1D001204D4908800E20891C08801021C0
:1024A0004A481838FFF745FF08B1002010BD202129
:1024B00046481838FFF73DFF08B10120F6E74021F4
:1024C00042481838FFF735FF08B10220EEE78021B7
:1024D0003E481838FFF72DFF08B10320E6E7022039
:1024E0003A4908800D20891C088010213748183887
:1024F000FFF71FFF08B10420D8E720213348183820
:10250000FFF717FF08B10520D0E740212F48183802
:10251000FFF70FFF08B10620C8E780212B481838C5
:10252000FFF707FF08B10720C0E70420274908800C
:102530000B20891C0880102124481838FFF7F9FE69
:1025400010B10820B2E73DE0202120481838FFF7FD
:10255000F0FE08B10920A9E740211C481838FFF710
:10256000E8FE08B10A20A1E7802118481838FFF7D3
:10257000E0FE08B10B2099E70820144908800720E5
:10258000891C0880102111481838FFF7D2FE08B1C5
:102590000C208BE720210D481838FFF7CAFE08B140
:1025A0000D2083E7402109481838FFF7C2FE08B123
:1025B0000E207BE7802105481838FFF7BAFE08B1E6
:1025C0000F2073E74FF0FF3070E70000180C024057
:1025D0001CB51820009000208DF8040001208DF813
:1025E000070003208DF8050069460248FFF736FE14
:1025F0001CBD0000001002401CB54FF4C0600090EC
:1026000000208DF8060001208DF8040000208DF8D0
:10261000070003208DF8050069460248FFF71EFEFB
:102620001CBD000000140240012802D002280AD17B
:1026300004E04FF40071054A118005E04FF4806119
:10264000024A118000E000BF00BF7047181402402A
:10265000012802D002280AD104E04FF40071054A93
:10266000118005E04FF48061024A118000E000BF54
:1026700000BF70471A14024000BF0549098801F0E5
:1026800040010029F9D00249091D08807047000067
:102690000044004000BFFEE77047000070B5002115
:1026A00000230F22C4781CB3174C246804F4E064A0
:1026B000C4F5E064C4F30721C1F10404E3B20A41A4
:1026C00044789C40E1B28478144021430C07210EE9
:1026D0000E4C05786155047804F01F050124AC40C8
:1026E00005786D11AD0005F1E025C5F8004109E060
:1026F000047804F01F050124AC40054D06787611DE
:1027000045F8264070BD00000CED00E000E400E05C
:1027100080E100E002490143024A11607047000075
:102720000000FA050CED00E070B5002419E004F19A
:10273000B001C8B2002100F039F90021084600F0CC
:1027400035F90021102000F031F9002505E00121C4
:10275000002000F02BF9681CC5B2802DF7DB601C4F
:10276000C4B2082CE3DB70BD1CB54FF48060009050
:1027700001208DF8040000208DF8060002208DF85D
:10278000050069465148FFF769FD4FF480614F48E5
:10279000FFF7DAFD4FF47040009069464C48FFF7B0
:1027A0005DFD4FF470414A48FFF7CEFD4FF4804184
:1027B0004748FFF7C9FD642001F006FC4FF4804153
:1027C0004348FFF7BFFD642001F0FEFB4FF480415A
:1027D0003F48FFF7B9FD0021AE2000F0E7F80021E7
:1027E000084600F0E3F80021102000F0DFF8002197
:1027F000402000F0DBF80021812000F0D7F8002114
:10280000CF2000F0D3F80021A12000F0CFF8002164
:10281000C82000F0CBF80021A62000F0C7F8002166
:10282000A82000F0C3F800213F2000F0BFF80021ED
:10283000D32000F0BBF80021084600F0B7F80021D3
:10284000D52000F0B3F80021802000F0AFF800217F
:10285000D92000F0ABF80021F12000F0A7F800210A
:10286000DA2000F0A3F80021122000F09FF80021E8
:10287000DB2000F09BF80021402000F097F80021B9
:10288000202000F093F80021022000F08FF80021B2
:102890008D2000F08BF80021142000F087F8002133
:1028A000A42000F083F80021A62000F07FF800218A
:1028B000AF2000F07BF80021AF2000F077F8FFF7A1
:1028C00033FF0021084600F005F81CBD000C024053
:1028D0000004024070B504460D4605F1B001C8B2CF
:1028E000002100F063F8102141EA1410002100F0EB
:1028F0005DF804F00F0141F00100002100F056F8EE
:1029000070BD00002DE9F04107460E4690460025B7
:102910000024A8F12000C5B27F2F02DD0027B01CE3
:10292000C6B231463846FFF7D5FF002408E004EB75
:1029300005110F4A505C012100F038F8601CC4B248
:10294000082CF4DB701CC1B23846FFF7C3FF00242B
:1029500009E004EB05110831054A505C012100F043
:1029600025F8601CC4B2082CF3DBBDE8F081000040
:10297000705C00082DE9F04104460F46154600261C
:102980000EE0AA5D39462046FFF7BCFF04F10800BF
:10299000C4B2782C02DD0024B81CC7B2701CC6B2C9
:1029A000A85D0028EDD1BDE8F081000070B50446B7
:1029B0000E462EB14FF400411C48FFF7C5FC04E061
:1029C0004FF400411948FFF7BDFC4FF480611848EF
:1029D000FFF7B8FC00251BE04FF480511348FFF7C8
:1029E000B1FC04F0800028B14FF400510F48FFF70C
:1029F000ABFC04E04FF400510C48FFF7A3FC4FF48C
:102A000080510A48FFF7A0FC6006040E681CC5B29E
:102A1000082DE1DB4FF480610548FFF795FC4FF48A
:102A200000410248FFF790FC70BD00000004024026
:102A3000000C02407CB500250820009000208DF895
:102A4000040001208DF8070002208DF8050069467A
:102A50002E48FFF703FC08212C48FFF775FCFF20E8
:102A6000009000208DF804008DF807006946284882
:102A7000FFF7F4FB7520009000208DF804008DF81E
:102A8000060069462348FFF7E9FB75212148FFF757
:102A90005BFC1020009000208DF804008DF80600EB
:102AA00069461A48FFF7DAFB10211848FFF74CFC7B
:102AB00000F068FA8021122000F0A6FB08B1012086
:102AC0007CBD322001F080FA0B2000F0CFFA0446E2
:102AD000732C01D00220F3E70A2000F0C7FA044665
:102AE000762C01D00220EBE700250AE00A4A02EB2F
:102AF00045025178084A12F8150000F085FB681C61
:102B000085B2A82DF2D30020DAE7000000040240CD
:102B10000014024000100240606200082DE9F041FC
:102B2000054600F0A2FC00F077FC012000F097FCC5
:102B3000032000F0A2FC0F2000F0A9FC1327384668
:102B400000F084FC4FF47A70FFF702FC0446BCB13D
:102B5000667AE07BA17B00EB01202880607CA87076
:102B6000A07C0006E17C00EB0140217D00EB012010
:102B7000617D08446860E07D2872607E687200E0D4
:102B8000FF26A6B929880FA0FDF7F8FBA97813A0A6
:102B9000FDF7F4FB15A06968FDF7F0FB687A4FF4C8
:102BA000165210FB02F114A0FDF7E8FB07E03046D7
:102BB000FFF766F98046414612A0FDF7DFFB30467D
:102BC000BDE8F0810D0AC4A3BFE9D7EEB4F3D6B8CF
:102BD000CEC6C8DDC1BF3D25640000000D0AB6D4D5
:102BE000B1C8B5C8BCB63D25640000000D0AB5D813
:102BF000D6B73D25780000000D0AB2A8CCD8C2CACD
:102C00003D2564000D0A2573000000002DE9F04108
:102C1000044600F02AFC00F0FFFB012000F01FFC3E
:102C2000072000F02AFC152000F031FC200EFFF7F1
:102C300023FDC4F30740FFF71FFDC4F30720FFF790
:102C40001BFDE0B2FFF718FD1D2000EB1460C4F37C
:102C500007410844C4F307210844E1B24718384645
:102C600000F0F4FB0E4804604FF4FA60FFF770FBCD
:102C700006460EB1757A00E0FF25094804601DB9CB
:102C800008A0FDF77BFB07E02846FFF7F9F8804630
:102C9000414609A0FDF772FB2846BDE8F08100001F
:102CA000D00100200D0AC9E8D6C3B5D8D6B7B3C93C
:102CB000B9A6A3A1000000000D0A257300000000C2
:102CC0001CB54020009000208DF8040002208DF8F3
:102CD000070003208DF8050069460248FFF7BEFA99
:102CE0001CBD0000000002402DE9F041064600F046
:102CF000BCFB00F091FB012000F0B1FB032000F0D1
:102D0000BCFB1D2000F0C3FB2127384600F09EFBD2
:102D10004FF4FA60FFF71CFB044634B1657AE07AA1
:102D2000A17A00EB0120308000E0FF253DB9E07A78
:102D3000A27A00EB022107A0FDF720FB07E028465E
:102D4000FFF79EF88046414607A0FDF717FB28468F
:102D5000BDE8F0810D0AD3D0D0A7D6B8CEC6B8F65C
:102D6000CAFD3D25640000000D0A25730000000027
:102D70002DE9F04706460D4600F077FB00F04CFBCE
:102D8000012000F06CFB052000F077FB0E2000F026
:102D90007EFB3046FFF770FC2846FFF76DFC70198C
:102DA00000F11408404600F051FB4FF4FA60FFF7C1
:102DB000CFFA07460FB17C7A00E0FF241CB907A0C8
:102DC000FDF7DCFA07E02046FFF75AF8814649464E
:102DD00007A0FDF7D3FA2046BDE8F0870D0AC9E841
:102DE000D6C3B2CECAFDB3C9B9A6A3A100000000E4
:102DF0000D0A2573000000007047000029B1064A43
:102E000012680243044B1A6004E0034A12688243CA
:102E1000014B1A60704700003038024029B1064A61
:102E200012680243044B1A6004E0034A12688243AA
:102E3000014B1A60704700004038024029B1064A31
:102E400012680243044B1A6004E0034A126882438A
:102E5000014B1A60704700002038024029B1064A31
:102E600012680243044B1A6004E0034A126882436A
:102E7000014B1A60704700004438024029B1064AED
:102E800012680243044B1A6004E0034A126882434A
:102E9000014B1A607047000024380240F0B5002151
:102EA00000220024022500260223324F3F6807F04B
:102EB0000C0121B1042905D0082937D105E02E4F96
:102EC000076036E02D4F076033E02A4F3F1F3F6811
:102ED000C7F38056274F3F1F3F6807F03F036EB18F
:102EE000264FB7FBF3F7DFF88CC0ACF1040CDCF82D
:102EF00000C0CCF3881C07FB0CF40CE01E4FB7FBA2
:102F0000F3F7DFF870C0ACF1040CDCF800C0CCF3D0
:102F1000881C07FB0CF4174F3F1F3F68C7F301479E
:102F20007F1C7D00B4FBF5F7076002E0124F0760DD
:102F300000BF00BF0F4F3F6807F0F0010909104FB5
:102F40007A5C0768D74047600A4F3F6807F4E05152
:102F5000890A0B4F7A5C4768D7408760054F3F6806
:102F600007F46041490B064F7A5C4768D740C76059
:102F7000F0BD0000083802400024F40000127A007E
:102F8000C00100201CB54FF40050009001208DF8C6
:102F9000040002208DF8050069460D48FFF75EF930
:102FA0004FF400510A48FFF7CFF9022000900120AA
:102FB0008DF8040000208DF8060069460548FFF7EB
:102FC0004DF902210348FFF7BFF900F08FF81CBD4F
:102FD000000802400010024010B5322001F010F845
:102FE00001200B4908600B49C1F88402322001F02E
:102FF00007F8002008490860322001F001F800209D
:103000000649C1F8B402322000F0FAFF10BD0000FA
:10301000B402414200004242840242420000414266
:1030200070B5002400F04AF8082515E0322000F0C1
:10303000E7FF01200B4908606006040E0A48D0F83B
:10304000340208B1601CC4B2322000F0D9FF002065
:1030500004490860681EC5B2002DE7DC00F046F8A0
:10306000204670BD840242420000414270B50446D1
:10307000002500F053F8422000F084F8642000F0AE
:10308000BFFF204600F07EF8642000F0B9FF00F09A
:103090005FF8642000F0B4FF00F040F8432000F037
:1030A00071F8642000F0ACFFFFF7BAFF0546FFF7A8
:1030B00093FF00F04DF8284670BD00001CB54FF49A
:1030C0000050009000208DF8040001208DF80700CA
:1030D00000208DF8060002208DF8050069460248A0
:1030E000FFF7BCF81CBD0000000802401CB54FF4FF
:1030F0000050009001208DF8040000208DF806009B
:1031000001208DF8070002208DF80500694602486D
:10311000FFF7A4F81CBD00000008024010B5012014
:10312000094908600949C1F88402322000F068FFAB
:10313000002005490860322000F062FF00200349AA
:10314000C1F8840210BD0000B402414200004242B6
:1031500010B5002009490860322000F051FF01201D
:103160000749C1F88402322000F04AFF01200349D8
:103170000860322000F044FF10BD0000B40241425C
:103180000000424270B5044600261AE004F08000B8
:1031900018B101201849086002E0002016490860B3
:1031A0006006040E322000F02BFF01201349086056
:1031B000322000F025FF00201149C1F88402701C64
:1031C000C6B2082EE2DBFFF779FF322000F018FFCD
:1031D00001200A490860322000F012FF0948D0F8A7
:1031E000340208B1012500E00025002003490860F1
:1031F000FFF77CFF284670BDB40241428402424280
:10320000000042420000414270B505460C460026CF
:10321000FFF784FF4220FFF7B5FF00B101266420CD
:1032200000F0EEFE2846FFF7ADFF00B10126642056
:1032300000F0E6FE2046FFF7A5FF00B10126FFF7EC
:1032400087FF304670BD000000B587B0012108033C
:10325000FFF704FE3820059002208DF818000020AA
:103260008DF81A0003208DF8190001208DF81B003D
:1032700005A92248FEF7F2FF052203211F48FFF7A8
:1032800035F8052204211D48FFF730F805221146C4
:103290001A48FFF72BF801210803FFF7EFFD002183
:1032A0004FF48050FFF7EAFD0020ADF800004FF426
:1032B0008270ADF802000020ADF804000220ADF8E5
:1032C00006000120ADF808004002ADF80A003820E1
:1032D000ADF80C000020ADF80E000720ADF810008E
:1032E0006946074800F058F80121054800F03AF80F
:1032F000FF2000F007F807B000BD00000004024006
:103300000030014010B5044600BF02210A4800F019
:1033100035F80028F9D02146074800F03BF800BFF7
:103320000121054800F02AF80028F9D0024800F0F1
:103330002EF8C0B210BD00000030014010B50446A8
:10334000074800884FF6C7710840054908800846BD
:103350000088204308800121014800F003F810BDD7
:103360000030014021B1028842F04002028004E0B6
:1033700002884FF6BF731A40028070470246002051
:1033800013890B400BB1012000E00020704701467B
:10339000888970478181704710B50022028802F445
:1033A00041520B884C8823438C882343CC88234389
:1033B0000C8923434C8923438C892343CC892343A1
:1033C0001A430280838B4FF2FF74234083830B8A5E
:1033D000038210BD7047000030B500228B071C0F20
:1033E0000F2303FA04F20B4B8C1053F82430934351
:1033F000084C8D1044F8253023468C1053F82430A7
:103400008C07240F00FA04F42343024C8D1044F877
:10341000253030BD0838014010B50B490968080E49
:10342000FFF72AF908480068C0F30740FFF724F9BE
:1034300005480088C0F30720FFF71EF90249087805
:10344000FFF71AF910BD0000D001002010B50446A6
:103450002012FFF711F9E0B2FFF70EF910BD10B519
:1034600004462046FFF708F910BD10B5EF20FFF71E
:1034700003F90120FFF700F910BD10B50446C4F3AD
:103480000720FFF7F9F8E0B2FFF7F6F810BD10B526
:1034900004462046FFF7F0F810BD00000CB50020F0
:1034A000019000903448006840F480303249086050
:1034B00000BF3148006800F4003000900198401CC3
:1034C0000190009818B90198B0F5A04FF1D12A48A1
:1034D000006800F4003010B10120009001E00020ED
:1034E00000900098012846D123484030006840F001
:1034F00080502149403108602048006840F4404035
:103500001E4908601C48083000681B4908310860E3
:103510000846006840F4004008600846006840F42F
:10352000A05008601648091F0860081F006840F096
:103530008070091F086000BF0F48006800F000702D
:103540000028F9D040F205700E4908600A4808309A
:10355000006820F003000849083108600846006848
:1035600040F00200086000BF03480830006800F027
:103570000C000828F8D10CBD003802400070004053
:1035800008544007003C0240042808D14FF0E021D5
:10359000096941F004014FF0E022116107E04FF0AA
:1035A000E021096921F004014FF0E0221161704728
:1035B0007047000010B51548006840F470001349CA
:1035C00008601348006840F00100114908600020BD
:1035D0000F49083108600E4800680E4908400C4940
:1035E00008600D48091D0860081F006820F480204D
:1035F000091F0860002006490C310860FFF74EFFE4
:103600004FF0006001498039086010BD88ED00E08E
:1036100000380240FFFFF6FE1030002410B50121F3
:10362000044800F016F918B10121024800F0F3F83F
:1036300010BD00000004004010B501210A4800F050
:1036400008F901280AD1094908698047002106487C
:1036500000F024F96421044800F01EF90121024819
:1036600000F0D9F810BD000000080040CC00002098
:1036700010B52C48007800F0800000284CD10121C2
:10368000294800F0E6F8D0B12648007800F0400064
:10369000A8B12448007800F03F003F280AD1214813
:1036A000007840F080001F4908704FF6FF701F49F6
:1036B000088004E01B480078401C1A490870022169
:1036C000194800F0C6F838B31648007800F04000FA
:1036D00078B11448007840F0800012490870124810
:1036E00000F0A8F81149088000210F4800F0CBF83D
:1036F00012E000200B4908700C49088000210A489C
:1037000000F0CCF80748007840F040000549087008
:103710000221054800F0B7F80321034800F07BF8C8
:1037200010BD0000D6010020000C0040D801002090
:103730007FB505460C4601211020FFF76FFB02956F
:10374000ADF804400020ADF80C00ADF8060001A96A
:103750000D4800F0A5F8012241210B4800F08AF83D
:103760000121094800F05AF81D208DF800000120C1
:103770008DF8010003208DF8020001208DF8030070
:103780006846FEF78BFF7FBD0010004010B5012199
:10379000094800F05EF868B10848008840F400402D
:1037A000064908800121044800F035F8002102484C
:1037B00000F034F810BD000000140040D4010020D7
:1037C0007FB505460C4601212020FFF727FB019518
:1037D000ADF800400020ADF80800ADF802006946E1
:1037E0000A4800F05DF801221146084800F042F84E
:1037F00037208DF80C0001208DF80D008DF80E009B
:103800008DF80F0003A8FEF749FF7FBD00140040AC
:10381000CA4302827047CA430282704721B10288BC
:1038200042F00102028004E002884FF6FE731A4063
:10383000028070470146486B70470146486A7047EE
:1038400002460020138A0B400BB1012000E000204B
:10385000704730B50246002000230024158A05EA8F
:103860000103958905EA010413B10CB1012000E0C0
:10387000002030BD1AB183890B43838102E0838924
:103880008B43838170470A460021018C4FF6FD73FC
:103890001940114301847047C1627047416270470B
:1038A00000220288184B98420ED0184B98420BD039
:1038B000B0F1804F08D0164B984205D0154B984276
:1038C00002D0154B984204D14FF68F731A404B88A3
:1038D0001A43124B984207D0114B984204D04FF62E
:1038E000FF431A400B891A4302804B68C3620B885E
:1038F0000385054B984202D0044B984201D18B7A44
:1039000003860123838270470000014000040140C8
:103910000004004000080040000C0040001000407F
:10392000001400407FB504460D4601210420FFF736
:1039300075FAADF800500020ADF802000194ADF822
:10394000080069460D48FFF7ABFF012211460B48FE
:10395000FFF790FF01210948FFF760FF1E208DF857
:103960000C0003208DF80D0002208DF80E000120C0
:103970008DF80F0003A8FEF791FE7FBD0008004000
:1039800010B540F225511D4800F03FF910B31B4817
:1039900000F0F4F9C4B21A48008800F40040C8B935
:1039A0001748008800F4804060B10A2C03D0002042
:1039B0001349088020E01248008840F40040104974
:1039C000088019E00D2C06D10D48008840F4804095
:1039D0000B49088010E00A480088C0F30D0009492F
:1039E0000C5407480088401C054908800846008898
:1039F000C72801DD0020088010BD00000010014034
:103A0000580000206802002010B540F225511648E9
:103A100000F0FBF800B3144800F0B0F9C4B213484A
:103A2000008800F40040B8B910480088B0F5C87F9D
:103A300013DA00210E48FFF731FF0C48008818B94F
:103A400001210B48FFF7EAFE084801880088401C66
:103A5000064A10800748445405E00448008840F4B2
:103A600000400249088010BD00440040D4010020FD
:103A700000140040D0AD012010B540F22551164889
:103A800000F0C3F800B3144800F078F9C4B213484A
:103A9000008800F40040B8B910480088B0F5C87F2D
:103AA00013DA00210E48FFF7F9FE0C48008818B918
:103AB00001210B48FFF7B2FE084801880088401C2E
:103AC000064A10800748445405E00448008840F442
:103AD00000400249088010BD004800405402002008
:103AE00000140040F0B0012021B1828942F400525C
:103AF000828104E082894DF6FF731A40828170470B
:103B000010B504463248844208D101211020FFF745
:103B1000B5F900211020FFF7B1F957E02D48844294
:103B200009D101214804FFF789F900214FF4003041
:103B3000FFF784F94AE02848844209D1012188042A
:103B4000FFF77CF900214FF48020FFF777F93DE083
:103B50002248844209D10121C804FFF76FF90021EE
:103B60004FF40020FFF76AF930E01D48844209D184
:103B700001210805FFF762F900214FF48010FFF7DB
:103B80005DF923E01748844208D101212020FFF786
:103B900075F900212020FFF771F917E012488442DF
:103BA00009D101218807FFF749F900214FF0804032
:103BB000FFF744F90AE00D48844207D1012140058E
:103BC000FFF73CF900216005FFF738F910BD000050
:103BD000001001400044004000480040004C0040FC
:103BE000005000400014014000780040007C00407C
:103BF00002460020B1F5007F00D100BF13880B40C2
:103C00000BB1012000E00020704770B5024600248F
:103C100000230025002040F66A16B14200D100BF03
:103C2000C1F3421501F01F03012606FA03F3012D2B
:103C300002D19689334006E0022D02D1168A334024
:103C400001E0968A33400C12012606FA04F4168825
:103C5000344013B10CB1012000E0002070BDF0B57C
:103C60000346002400260025002040F66A17B942CA
:103C700000D100BF1846C1F3421401F01F0601270E
:103C800007FA06F5012C01D10C3004E0022C01D119
:103C9000103000E014301AB107682F43076002E0CB
:103CA0000768AF430760F0BD2DE9FF4705460E46A4
:103CB0000024A14600BFA046B08900B100BF2C8AF5
:103CC00024F44054F08804432C82AC8941F20C6007
:103CD0008443B08831890843718908430443AC8127
:103CE000AC8A24F44074B0890443AC826846FFF780
:103CF000D5F82048854202D01F48854202D1DDF820
:103D00000C9001E0DDF80890A88900F4004040B173
:103D100009EBC90000EB091031684900B0FBF1F76D
:103D200007E009EBC90000EB091031688900B0FB1E
:103D3000F1F76420B7FBF0F004012009642101FBD6
:103D40001078A88900F4004040B1322000EBC80090
:103D5000B0FBF1F000F00700044308E0322000EB74
:103D600008106421B0FBF1F000F00F0004432C8137
:103D7000BDE8FF870010014000140140014688881B
:103D8000C0F308007047C1F308028280704700BF8B
:103D9000FEE700001CB54FF48040009001208DF834
:103DA000040000208DF8060003208DF80500012096
:103DB0008DF8070069460D48FEF750FA8020009004
:103DC00069460B48FEF74AFA80210948FEF7BCFA1B
:103DD000012008490860FFF737FA0020FFF7AEFA24
:103DE00000F00CF8044908801CBD000000040240EB
:103DF00000180240B88240425802002010B500244A
:103E000000200E4908609020FFF77CFA0020FFF7A1
:103E100079FA0020FFF776FA0020FFF773FAFF2007
:103E2000FFF770FA44EA0024FF20FFF76BFA04431F
:103E300001200349C1F8B802204610BDB8824042B3
:103E40000080404203B401984100009850EAC1202C
:103E500018BF04204A0D18BF40F0010040F2FF7265
:103E6000B2EB515F08BF40F00200012808BF0520F7
:103E700002B0704730380A2801D201207047002074
:103E8000704700BF7047000070B504460025094820
:103E9000008800F4004058B1002006490988C1F3A9
:103EA0000E01054A505421461046FCF723FC0546F6
:103EB000284670BD54020020F0B001202DE9F041E9
:103EC00006460D4614460027002013490880314657
:103ED00012A000F0A7FBE5B1DCB113E00A2000F06E
:103EE00073F80D48008800F4004058B12846FFF7E9
:103EF000CBFF20B129460BA0FCF740FA06E00020DA
:103F000005490880601E80B20400E7D100BF04B9F3
:103F100001273846BDE8F0815402002025730D0AC0
:103F20000000000061636B3A25730D0A0000000079
:103F30002DE9F04106460D461446002700201149A0
:103F40000880314610A000F06DFBC5B1BCB10FE098
:103F50000A2000F039F80B48008800F4004038B11E
:103F60002846FFF791FF00B106E0002005490880D0
:103F7000601E80B20400EBD100BF04B901273846AF
:103F8000BDE8F081540200202573000010B50446FE
:103F90006FF00400FFF7F8FAE11704EB5171C1F379
:103FA000C701074A11701046007800EB4001C1EBD1
:103FB000C0104FF6FF7101EAC0000249088010BD31
:103FC0004E0000205000002070B504464FF40770EA
:103FD00094FBF0F0C6B24FF4077094FBF0F100FBD5
:103FE000114085B205E04FF4077000F02FF8701E05
:103FF000C6B2002EF7D115B1284600F027F870BDE3
:104000000146114A12784A434FF0E0235A610022D8
:104010009A611A46126942F001021A6100BF4FF01C
:10402000E022106900F001021AB100F48032002A87
:10403000F5D04FF0E022126922F001024FF0E023A8
:104040001A6100229A6170474E0000200146114A11
:1040500012884A434FF0E0235A6100229A611A46BF
:10406000126942F001021A6100BF4FF0E0221069AC
:1040700000F001021AB100F48032002AF5D04FF0AE
:10408000E022126922F001024FF0E0231A610022BF
:104090009A6170475000002000BF054A128802F064
:1040A0004002002AF9D0C2B2014B9A80704700004A
:1040B0000010014090B0FEF79FFAFEF789FA4FF426
:1040C000A060FEF727FBAEA103C9CDE90001A8203F
:1040D000FFF75CFF01217F20FEF790FEFEF77CF9E1
:1040E000FEF742FBFEF720FB4FF4E13000F0C2FA8E
:1040F0004FF4614000F016FB4FF4964000F078FB5F
:10410000FEF7DEFDA0484168A8208847002000F0A7
:10411000BFF9022000F0BCF9FFF73CFE9BA2002192
:104120000846FEF727FCFDF7E3FF4FF4FA60FFF7C0
:104130004BFF9748974A98A1036802A8FCF72AF911
:10414000C8229CA102A8FFF7B9FE4FF47A70FFF7CE
:104150003BFFC82297A198A0FFF7B0FE4FF47A70FA
:10416000FFF732FFC82293A197A0FFF7A7FE99A2FD
:1041700000210846FEF7FEFB00BFFEF75BFC0028AF
:10418000FBD141F61F4142F21070FFF7D1FAFDF763
:10419000F5FD0020904908600220FEF745FA012055
:1041A000FEF742FA4FF47A70FFF70EFF0220FEF797
:1041B0003BFA0120FEF738FABBF1000F0ED1874819
:1041C0008378008886490988421A86A102A8FCF7EC
:1041D000E1F802AA00210846FEF7CCFB00BF002050
:1041E000864908606420FFF7EFFE00250CE000BF61
:1041F00040218348FFF7FCFC0028F9D01DF805108A
:104200007F48FFF7C0FD6D1C062DF0D3B7E07D4859
:10421000007800287ED000206F490C3908604020CB
:10422000794948830883488301207849C1F8880286
:1042300040207549088300270CE000BF40217048EA
:10424000FFF7D6FC0028F9D07148C15D6C48FFF734
:104250009AFD7F1C362FF0D3002758E01420FFF77B
:10426000B3FE00254FE04020674948836948006855
:10427000C4B2402008834FF6FF7000EA04244020B7
:10428000488364480068C0B20443402008830A9809
:10429000401C0A21B0FBF1F201FB12000BA90A90AD
:1042A00021F81040FB2000EA2428FC2000EAE4006A
:1042B000401C00F0FF09F82000EAC400C01C00F018
:1042C000FF0A00BF40214E48FFF792FC0028F9D0BA
:1042D00041464B48FFF757FD00BF40214848FFF7D4
:1042E00087FC0028F9D049464548FFF74CFD00BF40
:1042F00040214348FFF77CFC0028F9D05146404854
:10430000FFF741FD6D1CB5F5A07FACD37F1CF02FEE
:10431000A4D300E007E000203A4908703E48007846
:10432000401C3D4908704FF0FF36FEF777F806460F
:104330002EB3022E03D10120FEF78AF91FE0012ED1
:1043400006D10220FEF770F90120FEF76DF916E0A4
:10435000042E05D16422002130A0FFF7AFFD0EE04E
:10436000052E05D1642200212DA0FFF7E1FD06E016
:10437000062E04D16422002113A0FFF79FFD46E71B
:104380000102030004050000CC0000203100000001
:10439000DC0100200300002041542B4349505354BA
:1043A0004152543D22544350222C222573222C2565
:1043B000730000004F4B000041542B4349504D4FB8
:1043C00044453D310000000041542B4349505345C2
:1043D0004E44000032000000940242425C02002081
:1043E0000000002063617061636974793A2564207C
:1043F0006C6576656C3A2564000000001802404246
:1044000000480040560200200010024000004242D6
:104410001700002010140240DA010020313233006E
:104420002B2B2B002DE9F04104460E461548005D6C
:1044300038B9144820380168204688470120BDE873
:10444000F081114850F82400B04219D90F4850F8B3
:104450002400B6FBF0F10B480C3850F8240030F87B
:104460001120002508E0002306480C3850F82400ED
:104470004F1920F817306D1C9542F4DB0020DEE761
:104480000220DCE77C0000203C5A0008305A00087B
:1044900010B504460C4951F824104A000B4951F854
:1044A0002400002100F0B0F8094951F82420074900
:1044B0000C3951F82400002100F0A6F8012103482E
:1044C0000C30015510BD0000245A00087000002077
:1044D0003C5A00082DE9F04704460F460025A9463E
:1044E0002348005D20B922482038016820468847CB
:1044F0001FB94FF0FF30BDE8F0871E4850F8240088
:10450000B7FBF0F61B4850F82400B7FBF0F100FBB6
:10451000117000B1761C184850F82400451E22E0A6
:1045200013480C3850F8240030F8150010B909F180
:10453000010901E04FF00009B14513D14FF0000827
:1045400009E00B480C3850F8240005EB080220F86D
:10455000126008F10108B045F3D3064850F8240072
:104560006843C8E76D1E002DDADA4FF0FF30C2E76E
:104570007C000020305A0008245A000810B501467B
:104580000023002207E00B4850F8210030F8120009
:1045900000B15B1C521C084850F821009042F2D830
:1045A00064205843044C54F82140B0FBF4F0C0B2EE
:1045B00010BD000070000020245A000870B50546A8
:1045C0000C4604B970BD054850F82500261A31463E
:1045D0002846FFF727FF00BFF4E700006400002033
:1045E00070B504460E4631462046FFF773FF054678
:1045F000681C08B9002070BD024850F82400284407
:10460000F9E700006400002030B5034601E003F83C
:10461000011B1400A2F10102F9D130BD0146086866
:10462000704700000FB438B505A800900F48009AF5
:104630000499FBF791FE002000900C48FCF76CF801
:1046400085B200240DE000BF40210948FFF7D0FAF1
:104650000028F9D00548015D0548FFF794FB601C70
:1046600084B2AC42EFDB38BC5DF814FB60AF0120D4
:104670000048004010B588B0044601210846FEF706
:10468000BDFB01211020FEF7E9FB07220921234889
:10469000FDF72CFE07220A212048FDF727FE4FF4E4
:1046A000C060069002208DF81C008DF81D000020CF
:1046B0008DF81E0001208DF81F0006A91748FDF790
:1046C000CDFD02940020ADF80C00ADF80E00ADF861
:1046D0001000ADF814000C20ADF8120002A910482B
:1046E000FFF7E2FA01210E48FFF7FEF9012240F23E
:1046F00025510B48FFF7B3FA25208DF8040002205E
:104700008DF8050000208DF8060001208DF80700C7
:1047100001A8FDF7C3FF08B010BD00000000024073
:104720000010014010B588B0044601214804FEF78E
:1047300075FB2B48FFF7E4F9072202212948FDF712
:10474000D5FD072203212748FDF7D0FD0C20059059
:1047500002208DF818008DF8190000208DF81A003D
:1047600001208DF81B0005A91E48FDF777FD019477
:104770000020ADF80800ADF80A00ADF80C00ADF867
:1047800010000C20ADF80E0001A91548FFF78CFAB7
:1047900001211348FFF7A8F9012240F225511048E2
:1047A000FFF75DFA26208DF81C0001208DF81D0012
:1047B00000208DF81E0001208DF81F0007A8FDF7CE
:1047C0006DFF42F2CF0140F2E730FEF7F9FF002023
:1047D0000549088000210548FFF720F808B010BD02
:1047E0000044004000000240D401002000140040BA
:1047F00010B588B0044601218804FEF70FFB2C4851
:10480000FFF77EF907220A212A48FDF76FFD0722EC
:104810000B212848FDF76AFD4FF440600590022007
:104820008DF818008DF8190000208DF81A0001206D
:104830008DF81B0005A91F48FDF710FD019400200D
:10484000ADF80800ADF80A00ADF80C00ADF81000A6
:104850000C20ADF80E0001A91548FFF725FA01213B
:104860001348FFF741F9012240F225511048FFF7A4
:10487000F6F927208DF81C0002208DF81D0003207A
:104880008DF81E0001208DF81F0007A8FDF706FF18
:1048900042F2CF0140F2E730FEF792FF00200649D6
:1048A000088000210548FEF7B9FF08B010BD0000E0
:1048B0000048004000040240540200200014004060
:1048C00030B595B0054613AB12AA09A9284600F0E9
:1048D00039FA044614B1204615B030BD00201490BA
:1048E00026E0224909689DF8502001EBC20113AB74
:1048F00011AA486801A900F025FA04460CB1204627
:10490000EAE709A901A800F0BBFC60B99DF84400E2
:104910009DF84810884201DD0220DDE79DF8500037
:10492000124988750AE09DF85000401CC0B21490EE
:104930000E48007D9DF850108842D2DC00BF0B4825
:10494000007D9DF85010884201D10420C4E714A9CD
:10495000284600F0D7FA04460CB12046BCE79DF883
:104960005000024948750020B6E70000CC00002046
:104970002DE9F0419AB09C48847D007DA04202DC84
:104980001AB0BDE8F0819849096801EBC40106AB93
:1049900007AA486808A900F0D5F908A993A0FBF771
:1049A000EDFC002644E09048008B0121B140084016
:1049B000D8B122218FA0FBF7E1FC304600F028FBA4
:1049C00089492431471839468BA0FBF7D7FC2221AF
:1049D00088A0FBF7D3FC304600F01AFB8249243153
:1049E000084410A941F8260018E0304600F010FBFA
:1049F0007D492431085810A941F826007A48C07D25
:104A000030B910A850F826107CA0FBF7B7FC05E0E1
:104A100010A850F826107AA0FBF7B0FC9DF81C00F7
:104A2000401EB04202D078A0FBF7A8FC701CC6B2B2
:104A30009DF81C008642B6DB74A0FBF79FFC00F0DB
:104A400039FB6948407D0B280DD2DFE800F0060DE8
:104A5000151E27323F4E5F7287006349096851F87F
:104A600034008047054690E05F4A126852F83410DF
:104A700010988847054688E05B4B1B6853F8342044
:104A8000DDE91001904705467FE0574F3F6857F832
:104A9000343010A807C89847054676E0DFF848C1CB
:104AA000DCF800C05CF8347010A80FC8B8470546A1
:104AB0006BE01498DFF830C10090DCF800C05CF8BF
:104AC000347010A80FC8B84705465EE0DDE9140150
:104AD000DFF814C1CDE90001DCF800C05CF83470E7
:104AE00010A80FC8B84705464FE0DDE91412169824
:104AF000DFF8F4C0CDE900120290DCF800C05CF8E9
:104B0000347010A80FC8B84705463EE0DDE914230D
:104B1000DDE91610DFF8D0C0CDE90023CDE90210A1
:104B2000DCF800C05CF8347010A80FC8B847054620
:104B30002BE0DDE91523DDE91710CDE90123CDE9EF
:104B400003101498DFF8A0C00090DCF800C05CF8F7
:104B5000347010A80FC8B847054616E0DDE91623E3
:104B6000DDE91810CDE90223CDE90410DDE91401D7
:104B7000DFF874C0CDE90001DCF800C05CF83470E7
:104B800010A80FC8B847054600BF00BF00F050FA94
:104B90009DF8180001280CD11348C07D20B9294682
:104BA0001BA0FBF7EBFB07E029461BA0FBF7E6FB8E
:104BB00002E018A0FBF7E2FB0B4890F8EC0088B18C
:104BC0000948D0F8F0000A21B0FBF1F201FB12070E
:104BD0000548D0F8F000B0FBF1F83A46414611A084
:104BE000FBF7CCFB00BFCBE6CC0000200D0A257301
:104BF000280000002563000025730000256C750067
:104C000030582558000000002C000000290000004A
:104C10003D256C753B0D0A003D305825583B0D0A6B
:104C20000000000046756E6374696F6E2052756EE9
:104C30002054696D653A25642E2531646D730D0A23
:104C400000000000F0B503461546002000220026B3
:104C5000002455E01F782C2F01D104B901221F78C0
:104C6000292F01D01F780FB904B94AE0002E34D1A2
:104C70001F78302F02DB1F78392F11DD1F78612F4D
:104C800002DB1F78662F0BDD1F78412F02DB1F78B8
:104C9000462F05DD1F78582F02D01F78782F0CD1B2
:104CA00002B12EE01F78612F03DB1F78203F0F70C9
:104CB00001E01F780F70491C1FE01F78222F04D1DC
:104CC00002B11EE00126012417E01F78202F14D026
:104CD0001F782C2F11D0FF2613E01F78222F00D130
:104CE000002402B10DE044B11F785C2F02D15B1C9F
:104CF000471CF8B21F780F70491C471CF8B25B1CA8
:104D0000A8E700BF00270F702E70F0BD10B5044655
:104D1000002010700BE020780870641C491C10788B
:104D2000401C10701078984201DB012010BD2078E3
:104D3000202802D020780028EDD10020087000BF84
:104D4000F4E700002DE9FF4F85B080468946002733
:104D5000002004900390012002904FF0000B0025EA
:104D600044461DE02078202816D005F07F00052855
:104D700012DA0DB945F0800505F07F00042803D153
:104D800020782A2800D00EE0207805F07F010DF869
:104D90000100681CC5B202E0852D00D103E0641C4F
:104DA00020780028DED100BF8DB1002005F07F0102
:104DB0000DF8010051A1684600F062FA18B900210F
:104DC0000898017002E001210898017000254FF059
:104DD000000A444614E0641C0AF1010000F0FF0AD6
:104DE0002078202802D020782A2809D1204600F0F7
:104DF000D7F90646282E03D02A2E01D0CDF810A0D0
:104E00002078282802D020780028E4D1444604984D
:104E100010B10498401C04444FF0000A002654E0EE
:104E2000207810B94FF0010A50E02078282803D1EB
:104E300016B9781CC7B213E02078292808D13EB9EA
:104E400017B1781EC7B201E04FF0010A47B93DE043
:104E50002078222804D10EB9012000E00020064667
:104E600047B9207820282FD0207889F8000009F150
:104E7000010929E020782C2804D101200290681C27
:104E8000C5B214E02078202811D0207828280ED030
:104E90004DB9BBF1050F06DA20780DF80B000BF1C8
:104EA000010000F0FF0B0298401CC0B20290012FDD
:104EB0000AD10298022807D10298401CC0B2029081
:104EC0000398401CC0B20390641CA9E700BF03987C
:104ED000012809D100200DF80B0008A1684600F058
:104EE000CFF908B9002003900799039808700020B3
:104EF00089F80000504609B0BDE8F08F766F69640C
:104F0000000000002DE9F043B5B005460F4600242F
:104F1000002604E000213D488155701CC6B20A2ECF
:104F2000F8DB06E06D1C287818B9012035B0BDE823
:104F3000F08328782828F5D16D1C61E034AA6946F1
:104F40002846FFF77FFE064635449DF8D00020B185
:104F5000012827D0FF284CD149E09DF8000000B37C
:104F600033A9684600F027F906460EB10220DDE7B6
:104F7000204600F04DF825490A31339A0A50A1F134
:104F80002400008B0121A140884320491A3908835D
:104F900004211E480155601CC4B20A2C01DD032007
:104FA000C4E726E0684600F087F9401C00F0FF08DF
:104FB000204600F02DF815490A3100EB0109494659
:104FC000684600F06EF911481A38018B0120A040A4
:104FD000014388B20D491A3908830C4800F804804F
:104FE000601CC4B20A2C01DD03209FE701E002200F
:104FF0009CE700BF2878292801D0287800B900E074
:105000009CE700BF3C70002090E70000E600002015
:1050100002460020002105E0044B5B5C0344D8B24B
:105020004B1CD9B29142F7DB70470000E60000202C
:1050300010B501210D48FEF703FC012808D10C48EA
:10504000D0F8F0004FF6FF7108440949C1F8F000AC
:105050000648FEF7F2FB0649D1F8F010084404496F
:10506000C1F8F0000846D0F8F00010BD000800407C
:10507000CC00002010B5044604EBC40000EB041083
:105080000122C2EB800081B24FF47A70FEF74AFC35
:1050900001200149C87510BDCC00002010B50246A2
:1050A000012000E050430B00A1F10104E1B2F9D16D
:1050B00010BD000010B501210848FEF7A9FB4FF60E
:1050C000FF710648FEF7E8FB00210448FEF7E6FB07
:1050D00000200349C1F8F00010BD000000080040A6
:1050E000CC00002070B51D48008800F40040002866
:1050F00033D01A4805780020194948551948816865
:105100001748884704461CB91649C868804721E0FB
:10511000134800F0DDF80546012D00D02C46CCB137
:10512000012C06D0022C08D0032C0AD0042C10D15C
:105130000BE00DA0FBF722F90BE00EA0FBF71EF928
:1051400007E00FA0FBF71AF903E010A0FBF716F930
:1051500000BF00BF00200149088070BD580000203A
:1051600068020020CC000020BAAFCAFDB4EDCEF337
:10517000210D0A00B2CECAFDB4EDCEF3210D0A0016
:10518000B2CECAFDCCABB6E0210D0A00CEB4D5D26A
:10519000B5BDC6A5C5E4B5C4BAAFCAFD210D0A00A8
:1051A0000146491C00E0491C0878202801D100294B
:1051B000F9D1087870472DE9F04307460E460025DF
:1051C0004FF00A083C46002030601FE02078392864
:1051D00002DC207830280ADA2078462802DC2078A1
:1051E000412804DA2078582809D1012D07D12078E8
:1051F000412801DB4FF01008681CC5B205E020789B
:1052000000B904E00120BDE8F083641CDEE700BFC4
:105210003C46B8F1100F0FD1032D01DA0220F2E75E
:105220002078302806D16078582803D1A41CA81E05
:10523000C5B204E00320E6E70DB90420E3E71BE074
:105240000DB1681EC5B22078392806DC20783028D8
:1052500003DB2078A0F1300902E02078A0F13709C3
:1052600029464046FFF71AFF316809FB00103060FD
:10527000641C207800B900E0E2E700BF0020C2E72C
:1052800002460AE010780B78984201D0012070475E
:10529000107800B902E0521C491CF3E700BF00205F
:1052A000F5E706E002780A70027802B902E0401CD5
:1052B000491CF7E700BF70470146002005E00A7867
:1052C00002B903E0421CD0B2491CF8E700BF7047A6
:1052D00010B58CB004461E230BAA03A92046FFF785
:1052E00015FD0090009810B101200CB010BD9DF884
:1052F0002C00044400200B900EE040489DF82C2028
:1053000050F8221003A8FFF7BBFF00B908E09DF892
:105310002C00401CC0B20B909DF82C000728ECD349
:1053200000BF9DF82C00072863D2DFE800F00405D9
:105330003C5E6564630000BF31A0FBF71FF831A03D
:10534000FBF71CF83FA0FBF719F84EA0FBF716F887
:105350005CA0FBF713F86BA0FBF710F879A0FBF744
:105360000DF886A0FBF70AF88BA0FBF707F890A0D2
:10537000FBF704F894A0FBF701F899A0FAF7FEFFF9
:105380009EA0FAF7FBFFA4A0FAF7F8FFB0A0FAF787
:10539000F5FFBDA0FAF7F2FFC8A0FAF7EFFFD4A01F
:1053A000FAF7ECFF9AE216A0FAF7E8FFE0A0FAF7A6
:1053B000E5FF00200B900EE0ED4800689DF82C20E2
:1053C00000EBC2004168EBA0FAF7D8FF9DF82C0073
:1053D000401CC0B20B90E648007D9DF82C1088421E
:1053E000EADC07A0FAF7CAFF78E205A0FAF7C6FFE1
:1053F000C4E171E245E219E2ECE100008000002026
:105400000D0A00002D2D2D2D2D2D2D2D2D2D2D2D69
:105410002D2D2D2D2D2D2D2D2D2D2D2D55534D413A
:1054200052542056332E312D2D2D2D2D2D2D2D2D39
:105430002D2D2D2D2D2D2D2D2D2D2D2D2D2D2D20A9
:105440000D0A00002020202055534D415254CAC758
:10545000D3C9414C49454E54454BBFAAB7A2B5C428
:10546000D2BBB8F6C1E9C7C9B5C4B4AEBFDAB5F7A7
:10547000CAD4BBA5BDBBD7E9BCFE2CCDA8B9FD20C5
:105480000D0A0000CBFC2CC4E3BFC9D2D4CDA8B90F
:10549000FDB4AEBFDAD6FACAD6B5F7D3C3B3CCD013
:1054A000F2C0EFC3E6B5C4C8CEBACEBAAFCAFD2CBF
:1054B000B2A2D6B4D0D02ED2F2B4CB2CC4E3BFC9A2
:1054C0000D0A0000D2D4CBE6D2E2B8FCB8C4BAAF21
:1054D000CAFDB5C4CAE4C8EBB2CECAFD28D6A7B38C
:1054E000D6CAFDD7D62831302F3136BDF8D6C629D9
:1054F000A1A2D7D6B7FBB4AEA1A2BAAFCAFDC8EB82
:105500000D0A0000BFDAB5D8D6B7B5C8D7F7CEAA0E
:10551000B2CECAFD292CB5A5B8F6BAAFCAFDD7EEF2
:10552000B6E0D6A7B3D63130B8F6CAE4C8EBB2CEEF
:10553000CAFD2CB2A2D6A7B3D6BAAFCAFDB7B52062
:105540000D0A0000BBD8D6B5CFD4CABE2ED0C2D467
:10555000F6B2CECAFDCFD4CABEBDF8D6C6C9E8D60B
:10556000C3B9A6C4DC2CD0C2D4F6BDF8D6C6D7AA1F
:10557000BBBBB9A6C4DC2E0D0A000000BCBCCAF53A
:10558000D6A7B3D63A7777772E6F70656E65647657
:105590002E636F6D0D0A000055534D415254D3D008
:1055A00037B8F6CFB5CDB3C3FCC1EE3A0D0A000053
:1055B0003F3A202020202020BBF1C8A1B0EFD6FA2E
:1055C000D0C5CFA20D0A000068656C703A2020207B
:1055D000BBF1C8A1B0EFD6FAD0C5CFA20D0A00002A
:1055E0006C6973743A202020BFC9D3C3B5C4BAAF65
:1055F000CAFDC1D0B1ED0D0A0A00000069643A206D
:1056000020202020BFC9D3C3BAAFCAFDB5C44944C6
:10561000C1D0B1ED0D0A0A006865783A202020203B
:10562000B2CECAFD3136BDF8D6C6CFD4CABE2CBA6A
:10563000F3B8FABFD5B8F12BCAFDD7D6BCB4D6B4EF
:10564000D0D0BDF8D6C6D7AABBBB0D0A0A00000051
:105650006465633A20202020B2CECAFD3130BDF807
:10566000D6C6CFD4CABE2CBAF3B8FABFD5B8F12B80
:10567000CAFDD7D6BCB4D6B4D0D0BDF8D6C6D7AA4A
:10568000BBBB0D0A0A00000072756E74696D653A45
:10569000312CBFAAC6F4BAAFCAFDD4CBD0D0BCC699
:1056A000CAB13B302CB9D8B1D5BAAFCAFDD4CBD032
:1056B000D0BCC6CAB13B0D0A0A000000C7EBB0B4AB
:1056C000D5D5B3CCD0F2B1E0D0B4B8F1CABDCAE4FC
:1056D000C8EBBAAFCAFDC3FBBCB0B2CECAFDB2A222
:1056E000D2D4BBD8B3B5BCFCBDE1CAF82E0D0A00BC
:1056F0002D2D2D2D2D2D2D2D2D2D2D2D2D2D2D2DDA
:105700002D2D2D2D2D2D2D2D2D2D414C49454E541A
:10571000454B2D2D2D2D2D2D2D2D2D2D2D2D2D2D83
:105720002D2D2D2D2D2D2D2D2D2D2D200D0A000053
:105730002D2D2D2D2D2D2D2D2D2D2D2D2D2D2D2D99
:105740002D2D2D2D2D2D2D2D2DBAAFCAFDC7E5B533
:10575000A52D2D2D2D2D2D2D2D2D2D2D2D2D2D2D01
:105760002D2D2D2D2D2D2D2D2D2D2D2D200D0A00E6
:10577000CC00002025730D0A0000000059A0FAF7A4
:10578000FDFD00200B901AE0664909689DF82C2069
:1057900001EBC20101AB02AA486803A9FFF7D2FAE4
:1057A000604800689DF82C1050F8312003A95EA0D5
:1057B000FAF7E4FD9DF82C00401CC0B20B9059484C
:1057C000007D9DF82C108842DEDCAFF2CC30FAF779
:1057D000D5FD83E0AFF2D830FAF7D0FD0BAA03A9CC
:1057E0002046FFF72FFA9DF82C00C8B9694603A898
:1057F000FFF7E1FC0B909DF82C0020B94FA0009919
:10580000FAF7BCFD0EE09DF82C00042801D0022020
:105810006BE54DA0FAF7B2FD01204249C87501E0E1
:10582000022062E547A0FAF7A9FD57E045A0FAF784
:10583000A5FD0BAA03A92046FFF704FA9DF82C004A
:10584000C8B9694603A8FFF7B6FC0B909DF82C0079
:1058500020B942A00099FAF791FD0EE09DF82C00C6
:10586000042801D0022040E53FA0FAF787FD002080
:105870002C49C87501E0022037E532A0FAF77EFD19
:105880002CE030A0FAF77AFD0BAA03A92046FFF717
:10589000D9F99DF82C00C8B9694603A8FFF78BFC1D
:1058A0000B909DF82C0078B91E49009881F8EC0007
:1058B000084690F8EC0018B130A0FAF75FFD07E059
:1058C00035A0FAF75BFD03E002200EE502200CE5AF
:1058D0001CA0FAF753FD01E0012006E500BF0020FF
:1058E00003E500002D2D2D2D2D2D2D2D2D2D2D2DB4
:1058F0002D2D2D2D2D2D2D2D2D2D2D2D2DBAAFCA2C
:10590000FD204944202D2D2D2D2D2D2D2D2D2D2DDE
:105910002D2D2D2D2D2D2D2D2D2D2D2D2D2D2D2DB7
:10592000200D0A00CC0000202573206964206973D3
:105930003A0D0A3058253038580D0A004845583A73
:10594000305825580D0A00003136BDF8D6C6B2CE03
:10595000CAFDCFD4CABE210D0A0000004445433A17
:10596000256C750D0A0000003130BDF8D6C6B2CEE8
:10597000CAFDCFD4CABE210D0A00000052756E20A8
:1059800054696D652043616C63756C6174696F6EF9
:10599000204F4E0D0A00000052756E2054696D654F
:1059A0002043616C63756C6174696F6E204F46466D
:1059B0000D0A00000160704710B500290AD0087870
:1059C000002807D005487844FBF756FD002801D091
:1059D000002010BD0248784410BD00002A0D0000D0
:1059E000220D000010B500290AD00878002807D041
:1059F00005487844FBF740FD002801D0002010BD89
:105A00000248784410BD00001A0D0000120D00007D
:105A10004FF04070E1EE100A7047FBF755B9FBF705
:105A200089BA0000800C00000078000080070000A8
:105A30002000000020000000200000000090010075
:105A400000000F0000F00000000000000000000057
:105A5000002F000000000700070000147F147F14CF
:105A600000242A7F2A120062640813230036495555
:105A7000225000000503000000001C22410000002D
:105A800041221C000014083E08140008083E0808C3
:105A9000000000A06000000808080808000060601E
:105AA0000000002010080402003E5149453E00005D
:105AB000427F4000004261514946002141454B313F
:105AC000001814127F10002745454539003C4A490B
:105AD000493000017109050300364949493600067D
